{
  "_format": "hh-sol-artifact-1",
  "contractName": "BscAutonomousStrategy",
  "sourceName": "contracts/BscAutonomousStrategy.sol",
  "abi": [
    {
      "inputs": [
        {
          "internalType": "address",
          "name": "router",
          "type": "address"
        },
        {
          "internalType": "uint256",
          "name": "initialMaxAmountRaw",
          "type": "uint256"
        },
        {
          "internalType": "uint256",
          "name": "initialCooldownSeconds",
          "type": "uint256"
        },
        {
          "internalType": "address",
          "name": "admin",
          "type": "address"
        },
        {
          "internalType": "address",
          "name": "emergencyAdmin",
          "type": "address"
        }
      ],
      "stateMutability": "nonpayable",
      "type": "constructor"
    },
    {
      "anonymous": false,
      "inputs": [
        {
          "indexed": true,
          "internalType": "bytes32",
          "name": "cycleId",
          "type": "bytes32"
        },
        {
          "indexed": true,
          "internalType": "uint256",
          "name": "transitionNonce",
          "type": "uint256"
        },
        {
          "indexed": false,
          "internalType": "enum BscAutonomousStrategy.CycleState",
          "name": "previousState",
          "type": "uint8"
        },
        {
          "indexed": false,
          "internalType": "enum BscAutonomousStrategy.CycleState",
          "name": "nextState",
          "type": "uint8"
        },
        {
          "indexed": false,
          "internalType": "address",
          "name": "actor",
          "type": "address"
        },
        {
          "indexed": false,
          "internalType": "bool",
          "name": "emergencyOverride",
          "type": "bool"
        },
        {
          "indexed": false,
          "internalType": "bytes32",
          "name": "routeDataHash",
          "type": "bytes32"
        }
      ],
      "name": "CycleStateTransition",
      "type": "event"
    },
    {
      "anonymous": false,
      "inputs": [
        {
          "indexed": true,
          "internalType": "bool",
          "name": "paused",
          "type": "bool"
        },
        {
          "indexed": true,
          "internalType": "address",
          "name": "actor",
          "type": "address"
        },
        {
          "indexed": false,
          "internalType": "string",
          "name": "reason",
          "type": "string"
        }
      ],
      "name": "EmergencyPauseSet",
      "type": "event"
    },
    {
      "anonymous": false,
      "inputs": [
        {
          "indexed": true,
          "internalType": "bytes32",
          "name": "cycleId",
          "type": "bytes32"
        },
        {
          "indexed": true,
          "internalType": "uint256",
          "name": "transitionNonce",
          "type": "uint256"
        },
        {
          "indexed": false,
          "internalType": "bool",
          "name": "executed",
          "type": "bool"
        },
        {
          "indexed": false,
          "internalType": "bool",
          "name": "emergencyOverride",
          "type": "bool"
        },
        {
          "indexed": false,
          "internalType": "uint256",
          "name": "amountRaw",
          "type": "uint256"
        },
        {
          "indexed": false,
          "internalType": "bytes32",
          "name": "routeExecutionId",
          "type": "bytes32"
        },
        {
          "indexed": false,
          "internalType": "string",
          "name": "reason",
          "type": "string"
        }
      ],
      "name": "ExecutionDecision",
      "type": "event"
    },
    {
      "anonymous": false,
      "inputs": [
        {
          "indexed": false,
          "internalType": "uint256",
          "name": "maxAmountRaw",
          "type": "uint256"
        },
        {
          "indexed": false,
          "internalType": "uint256",
          "name": "cooldownSeconds",
          "type": "uint256"
        },
        {
          "indexed": true,
          "internalType": "address",
          "name": "actor",
          "type": "address"
        }
      ],
      "name": "RiskConfigUpdated",
      "type": "event"
    },
    {
      "anonymous": false,
      "inputs": [
        {
          "indexed": true,
          "internalType": "bytes32",
          "name": "role",
          "type": "bytes32"
        },
        {
          "indexed": true,
          "internalType": "address",
          "name": "account",
          "type": "address"
        },
        {
          "indexed": true,
          "internalType": "address",
          "name": "sender",
          "type": "address"
        }
      ],
      "name": "RoleGranted",
      "type": "event"
    },
    {
      "inputs": [],
      "name": "ADMIN_ROLE",
      "outputs": [
        {
          "internalType": "bytes32",
          "name": "",
          "type": "bytes32"
        }
      ],
      "stateMutability": "view",
      "type": "function"
    },
    {
      "inputs": [],
      "name": "EMERGENCY_ROLE",
      "outputs": [
        {
          "internalType": "bytes32",
          "name": "",
          "type": "bytes32"
        }
      ],
      "stateMutability": "view",
      "type": "function"
    },
    {
      "inputs": [],
      "name": "activeCycleId",
      "outputs": [
        {
          "internalType": "bytes32",
          "name": "",
          "type": "bytes32"
        }
      ],
      "stateMutability": "view",
      "type": "function"
    },
    {
      "inputs": [],
      "name": "asterDexRouter",
      "outputs": [
        {
          "internalType": "contract IAsterDexEarnRouter",
          "name": "",
          "type": "address"
        }
      ],
      "stateMutability": "view",
      "type": "function"
    },
    {
      "inputs": [],
      "name": "cooldownSeconds",
      "outputs": [
        {
          "internalType": "uint256",
          "name": "",
          "type": "uint256"
        }
      ],
      "stateMutability": "view",
      "type": "function"
    },
    {
      "inputs": [],
      "name": "cycleState",
      "outputs": [
        {
          "internalType": "enum BscAutonomousStrategy.CycleState",
          "name": "",
          "type": "uint8"
        }
      ],
      "stateMutability": "view",
      "type": "function"
    },
    {
      "inputs": [
        {
          "internalType": "bytes32",
          "name": "role",
          "type": "bytes32"
        },
        {
          "internalType": "address",
          "name": "account",
          "type": "address"
        }
      ],
      "name": "grantRole",
      "outputs": [],
      "stateMutability": "nonpayable",
      "type": "function"
    },
    {
      "inputs": [
        {
          "internalType": "bytes32",
          "name": "role",
          "type": "bytes32"
        },
        {
          "internalType": "address",
          "name": "account",
          "type": "address"
        }
      ],
      "name": "hasRole",
      "outputs": [
        {
          "internalType": "bool",
          "name": "",
          "type": "bool"
        }
      ],
      "stateMutability": "view",
      "type": "function"
    },
    {
      "inputs": [],
      "name": "lastExecutionAt",
      "outputs": [
        {
          "internalType": "uint256",
          "name": "",
          "type": "uint256"
        }
      ],
      "stateMutability": "view",
      "type": "function"
    },
    {
      "inputs": [],
      "name": "lastTransitionNonce",
      "outputs": [
        {
          "internalType": "uint256",
          "name": "",
          "type": "uint256"
        }
      ],
      "stateMutability": "view",
      "type": "function"
    },
    {
      "inputs": [],
      "name": "maxAmountRaw",
      "outputs": [
        {
          "internalType": "uint256",
          "name": "",
          "type": "uint256"
        }
      ],
      "stateMutability": "view",
      "type": "function"
    },
    {
      "inputs": [],
      "name": "paused",
      "outputs": [
        {
          "internalType": "bool",
          "name": "",
          "type": "bool"
        }
      ],
      "stateMutability": "view",
      "type": "function"
    },
    {
      "inputs": [],
      "name": "recoverFromHalt",
      "outputs": [],
      "stateMutability": "nonpayable",
      "type": "function"
    },
    {
      "inputs": [
        {
          "components": [
            {
              "internalType": "bytes32",
              "name": "cycleId",
              "type": "bytes32"
            },
            {
              "internalType": "uint256",
              "name": "transitionNonce",
              "type": "uint256"
            },
            {
              "internalType": "uint256",
              "name": "amountRaw",
              "type": "uint256"
            },
            {
              "internalType": "address",
              "name": "tokenIn",
              "type": "address"
            },
            {
              "internalType": "address",
              "name": "tokenOut",
              "type": "address"
            },
            {
              "internalType": "bytes",
              "name": "routeData",
              "type": "bytes"
            },
            {
              "internalType": "bytes32",
              "name": "routeDataHash",
              "type": "bytes32"
            },
            {
              "internalType": "bool",
              "name": "emergencyOverride",
              "type": "bool"
            }
          ],
          "internalType": "struct BscAutonomousStrategy.CycleRequest",
          "name": "req",
          "type": "tuple"
        }
      ],
      "name": "runDeterministicCycle",
      "outputs": [
        {
          "internalType": "bytes32",
          "name": "transitionId",
          "type": "bytes32"
        },
        {
          "internalType": "bytes32",
          "name": "routeExecutionId",
          "type": "bytes32"
        }
      ],
      "stateMutability": "nonpayable",
      "type": "function"
    },
    {
      "inputs": [
        {
          "internalType": "bool",
          "name": "value",
          "type": "bool"
        },
        {
          "internalType": "string",
          "name": "reason",
          "type": "string"
        }
      ],
      "name": "setEmergencyPause",
      "outputs": [],
      "stateMutability": "nonpayable",
      "type": "function"
    },
    {
      "inputs": [
        {
          "internalType": "uint256",
          "name": "newMaxAmountRaw",
          "type": "uint256"
        },
        {
          "internalType": "uint256",
          "name": "newCooldownSeconds",
          "type": "uint256"
        }
      ],
      "name": "setRiskConfig",
      "outputs": [],
      "stateMutability": "nonpayable",
      "type": "function"
    }
  ],
  "bytecode": "0x60a06040523480156200001157600080fd5b506040516200144138038062001441833981016040819052620000349162000256565b6001600160a01b038516620000825760405162461bcd60e51b815260206004820152600f60248201526e1c9bdd5d195c97dc995c5d5a5c9959608a1b60448201526064015b60405180910390fd5b6001600160a01b038216620000cb5760405162461bcd60e51b815260206004820152600e60248201526d18591b5a5b97dc995c5d5a5c995960921b604482015260640162000079565b6001600160a01b038116620001185760405162461bcd60e51b8152602060048201526012602482015271195b595c99d95b98de57dc995c5d5a5c995960721b604482015260640162000079565b6001600160a01b03858116608052600585905560068490556001805460ff19908116825584831660008181527f7d7ffb7a348e1c6a02869081a26547b49160dd3df72d1d75a570eb9b698292ec60209081526040808320805486168717905595871682527f3c1b1854ab1360abbb06c8d4c6b2672d4b8cedc5eff522ab19e51d5cb8fdbd469052848120805490931690931790915591513392917fa49807205ce4d355092ef5a8a18f56e8913cf4a201fbe287825b095693c2177591600080516020620014218339815191529190a460405133906001600160a01b038316907fbf233dd2aafeb4d50879c4aa5c81e96d92f6e6945c906a58f9f2d1c1631b4b26906000805160206200142183398151915290600090a45050505050620002b4565b80516001600160a01b03811681146200025157600080fd5b919050565b600080600080600060a086880312156200026f57600080fd5b6200027a8662000239565b94506020860151935060408601519250620002986060870162000239565b9150620002a86080870162000239565b90509295509295909350565b60805161114a620002d7600039600081816101620152610a67015261114a6000f3fe608060405234801561001057600080fd5b50600436106101005760003560e01c80636b76167d11610097578063b8221bc411610066578063b8221bc414610244578063bc27389d1461024d578063c751660914610275578063da3f1b441461027e57600080fd5b80636b76167d146101e757806375b238fc146101f05780638de21c7a1461021757806391d148541461023157600080fd5b80634897e9d2116100d35780634897e9d21461019c57806350810df5146101a45780635c975abb146101b75780635cc5046f146101d457600080fd5b806320df435914610105578063216e1f9a1461013f5780632f2ff15d146101485780633e9d7e0c1461015d575b600080fd5b61012c7fbf233dd2aafeb4d50879c4aa5c81e96d92f6e6945c906a58f9f2d1c1631b4b2681565b6040519081526020015b60405180910390f35b61012c60055481565b61015b610156366004610d98565b610287565b005b6101847f000000000000000000000000000000000000000000000000000000000000000081565b6040516001600160a01b039091168152602001610136565b61015b6103a3565b61015b6101b2366004610dc4565b610498565b6007546101c49060ff1681565b6040519015158152602001610136565b61015b6101e2366004610df7565b610552565b61012c60035481565b61012c7fa49807205ce4d355092ef5a8a18f56e8913cf4a201fbe287825b095693c2177581565b6001546102249060ff1681565b6040516101369190610eb4565b6101c461023f366004610d98565b610604565b61012c60065481565b61026061025b366004610ec2565b61062f565b60408051928352602083019190915201610136565b61012c60025481565b61012c60045481565b3360009081527f7d7ffb7a348e1c6a02869081a26547b49160dd3df72d1d75a570eb9b698292ec60205260409020547fa49807205ce4d355092ef5a8a18f56e8913cf4a201fbe287825b095693c217759060ff166103005760405162461bcd60e51b81526004016102f790610f05565b60405180910390fd5b6001600160a01b0382166103495760405162461bcd60e51b815260206004820152601060248201526f1858d8dbdd5b9d17dc995c5d5a5c995960821b60448201526064016102f7565b6000838152602081815260408083206001600160a01b0386168085529252808320805460ff1916600117905551339286917f2f8788117e7eff1d82e926ec794901d17c78024a50270940304540a733656f0d9190a4505050565b3360009081526000805160206110f583398151915260205260409020547fbf233dd2aafeb4d50879c4aa5c81e96d92f6e6945c906a58f9f2d1c1631b4b269060ff166104015760405162461bcd60e51b81526004016102f790610f05565b600360015460ff16600381111561041a5761041a610e7c565b146104545760405162461bcd60e51b815260206004820152600a6024820152691b9bdd17da185b1d195960b21b60448201526064016102f7565b6001805460ff1916815560038054600254604051919390926000805160206110d58339815191529261048d926000913391908390610f2c565b60405180910390a350565b3360009081527f7d7ffb7a348e1c6a02869081a26547b49160dd3df72d1d75a570eb9b698292ec60205260409020547fa49807205ce4d355092ef5a8a18f56e8913cf4a201fbe287825b095693c217759060ff166105085760405162461bcd60e51b81526004016102f790610f05565b60058390556006829055604080518481526020810184905233917f908c94d1fa702ad0cb87ce082312965a42f4735ff41faf5d8f19108b1e5051a9910160405180910390a2505050565b3360009081526000805160206110f583398151915260205260409020547fbf233dd2aafeb4d50879c4aa5c81e96d92f6e6945c906a58f9f2d1c1631b4b269060ff166105b05760405162461bcd60e51b81526004016102f790610f05565b6007805460ff19168515159081179091556040513391907fb56db74ea3b2ab83578101dc76a27a1c1fb21f532c09705f231f54a9ede60b3a906105f69087908790610f95565b60405180910390a350505050565b6000828152602081815260408083206001600160a01b038516845290915290205460ff165b92915050565b600080610643610100840160e08501610fb1565b60075460ff16156106ea57806106845760405162461bcd60e51b81526020600482015260066024820152651c185d5cd95960d21b60448201526064016102f7565b3360009081526000805160206110f5833981519152602052604090205460ff166106ea5760405162461bcd60e51b8152602060048201526017602482015276195b595c99d95b98de57dc9bdb1957dc995c5d5a5c9959604a1b60448201526064016102f7565b6106fb610100850160e08601610fb1565b1561076b573360009081526000805160206110f5833981519152602052604090205460ff166107665760405162461bcd60e51b8152602060048201526017602482015276195b595c99d95b98de57dc9bdb1957dc995c5d5a5c9959604a1b60448201526064016102f7565b6107ba565b3332146107ba5760405162461bcd60e51b815260206004820152601d60248201527f6d616e75616c5f6f766572726964655f706174685f72656a656374656400000060448201526064016102f7565b60008460400135116108005760405162461bcd60e51b815260206004820152600f60248201526e185b5bdd5b9d17dc995c5d5a5c9959608a1b60448201526064016102f7565b6005548460400135111561084b5760405162461bcd60e51b8152602060048201526012602482015271185b5bdd5b9d17d8589bdd9957d9dd585c9960721b60448201526064016102f7565b600354610859906001610fce565b8460200135146108ab5760405162461bcd60e51b815260206004820152601860248201527f696e76616c69645f7472616e736974696f6e5f6e6f6e6365000000000000000060448201526064016102f7565b60c08401356108bd60a0860186610fef565b6040516108cb92919061103d565b6040518091039020146109165760405162461bcd60e51b81526020600482015260136024820152720e4deeae8cabed0c2e6d0bedad2e6dac2e8c6d606b1b60448201526064016102f7565b600060015460ff16600381111561092f5761092f610e7c565b1461096d5760405162461bcd60e51b815260206004820152600e60248201526d73746174655f6e6f745f69646c6560901b60448201526064016102f7565b60065460045461097d9190610fce565b4210156109be5760405162461bcd60e51b815260206004820152600f60248201526e636f6f6c646f776e5f61637469766560881b60448201526064016102f7565b83356002819055604080516020808201939093529186013582820152850135606082015260c08086013560808301524660a08301520160408051601f198184030181529190528051602091820120935084013584356000805160206110d58339815191526000600133610a386101008b0160e08c01610fb1565b8a60c00135604051610a4e959493929190610f2c565b60405180910390a36001805460ff1916811790556000807f00000000000000000000000000000000000000000000000000000000000000006001600160a01b031663b5fd23416040880135610aa960808a0160608b0161104d565b610ab960a08b0160808c0161104d565b610ac660a08c018c610fef565b6040518663ffffffff1660e01b8152600401610ae6959493929190611068565b60408051808303816000875af1158015610b04573d6000803e3d6000fd5b505050506040513d601f19601f82011682018060405250810190610b2891906110a6565b915091508093508115610c83576001805460ff191660021781556020870135908735907f747a533fc41b64d66712fe893b473d61d808a2afbcc1bd632d79b0f17f5453cc90610b7e6101008b0160e08c01610fb1565b6040805192151583529015156020830152808b0135908201526060810185905260a06080820181905260169082015275185cdd195c99195e17d9585c9b97d95e1958dd5d195960521b60c082015260e00160405180910390a3602086013586356000805160206110d58339815191526001600233610c036101008d0160e08e01610fb1565b8c60c00135604051610c19959493929190610f2c565b60405180910390a36001805460ff19169055426004556020860135600381905586356000805160206110d58339815191526002600033610c606101008d0160e08e01610fb1565b8c60c00135604051610c76959493929190610f2c565b60405180910390a3610d74565b6001805460ff1916600390811790915560208701359081905586357f747a533fc41b64d66712fe893b473d61d808a2afbcc1bd632d79b0f17f5453cc6000610cd26101008b0160e08c01610fb1565b6040805192151583529015156020830152808b0135908201526060810185905260a06080820181905260149082015273185cdd195c99195e17d9585c9b97d9985a5b195960621b60c082015260e00160405180910390a3602086013586356000805160206110d58339815191526001600333610d556101008d0160e08e01610fb1565b8c60c00135604051610d6b959493929190610f2c565b60405180910390a35b505050915091565b80356001600160a01b0381168114610d9357600080fd5b919050565b60008060408385031215610dab57600080fd5b82359150610dbb60208401610d7c565b90509250929050565b60008060408385031215610dd757600080fd5b50508035926020909101359150565b8015158114610df457600080fd5b50565b600080600060408486031215610e0c57600080fd5b8335610e1781610de6565b9250602084013567ffffffffffffffff80821115610e3457600080fd5b818601915086601f830112610e4857600080fd5b813581811115610e5757600080fd5b876020828501011115610e6957600080fd5b6020830194508093505050509250925092565b634e487b7160e01b600052602160045260246000fd5b60048110610eb057634e487b7160e01b600052602160045260246000fd5b9052565b602081016106298284610e92565b600060208284031215610ed457600080fd5b813567ffffffffffffffff811115610eeb57600080fd5b82016101008185031215610efe57600080fd5b9392505050565b6020808252600d908201526c1c9bdb1957dc995c5d5a5c9959609a1b604082015260600190565b60a08101610f3a8288610e92565b610f476020830187610e92565b6001600160a01b03949094166040820152911515606083015260809091015292915050565b81835281816020850137506000828201602090810191909152601f909101601f19169091010190565b602081526000610fa9602083018486610f6c565b949350505050565b600060208284031215610fc357600080fd5b8135610efe81610de6565b8082018082111561062957634e487b7160e01b600052601160045260246000fd5b6000808335601e1984360301811261100657600080fd5b83018035915067ffffffffffffffff82111561102157600080fd5b60200191503681900382131561103657600080fd5b9250929050565b8183823760009101908152919050565b60006020828403121561105f57600080fd5b610efe82610d7c565b8581526001600160a01b0385811660208301528416604082015260806060820181905260009061109b9083018486610f6c565b979650505050505050565b600080604083850312156110b957600080fd5b82516110c481610de6565b602093909301519294929350505056fe546a6914cabc6805440325fbbc8b2791442a4a2df0c53c5a160225ab79ab8f563c1b1854ab1360abbb06c8d4c6b2672d4b8cedc5eff522ab19e51d5cb8fdbd46a26469706673582212205a03524b678ee0f8d86e1818fe69a2ca3a1b4b392b800b78e46bfb9763e72cee64736f6c634300081800332f8788117e7eff1d82e926ec794901d17c78024a50270940304540a733656f0d",
  "linkReferences": {},
  "deployedLinkReferences": {}
}