{"contracts/BscAutonomousStrategy.sol":{"BscAutonomousStrategy":{"abi":[{"inputs":[{"internalType":"address","name":"router","type":"address"},{"internalType":"uint256","name":"initialMaxAmountRaw","type":"uint256"},{"internalType":"uint256","name":"initialCooldownSeconds","type":"uint256"},{"internalType":"address","name":"admin","type":"address"},{"internalType":"address","name":"emergencyAdmin","type":"address"}],"stateMutability":"nonpayable","type":"constructor"},{"anonymous":false,"inputs":[{"indexed":true,"internalType":"bytes32","name":"cycleId","type":"bytes32"},{"indexed":true,"internalType":"uint256","name":"transitionNonce","type":"uint256"},{"indexed":false,"internalType":"enum BscAutonomousStrategy.CycleState","name":"previousState","type":"uint8"},{"indexed":false,"internalType":"enum BscAutonomousStrategy.CycleState","name":"nextState","type":"uint8"},{"indexed":false,"internalType":"address","name":"actor","type":"address"},{"indexed":false,"internalType":"bool","name":"emergencyOverride","type":"bool"},{"indexed":false,"internalType":"bytes32","name":"routeDataHash","type":"bytes32"}],"name":"CycleStateTransition","type":"event"},{"anonymous":false,"inputs":[{"indexed":true,"internalType":"bool","name":"paused","type":"bool"},{"indexed":true,"internalType":"address","name":"actor","type":"address"},{"indexed":false,"internalType":"string","name":"reason","type":"string"}],"name":"EmergencyPauseSet","type":"event"},{"anonymous":false,"inputs":[{"indexed":true,"internalType":"bytes32","name":"cycleId","type":"bytes32"},{"indexed":true,"internalType":"uint256","name":"transitionNonce","type":"uint256"},{"indexed":false,"internalType":"bool","name":"executed","type":"bool"},{"indexed":false,"internalType":"bool","name":"emergencyOverride","type":"bool"},{"indexed":false,"internalType":"uint256","name":"amountRaw","type":"uint256"},{"indexed":false,"internalType":"bytes32","name":"routeExecutionId","type":"bytes32"},{"indexed":false,"internalType":"string","name":"reason","type":"string"}],"name":"ExecutionDecision","type":"event"},{"anonymous":false,"inputs":[{"indexed":false,"internalType":"uint256","name":"maxAmountRaw","type":"uint256"},{"indexed":false,"internalType":"uint256","name":"cooldownSeconds","type":"uint256"},{"indexed":true,"internalType":"address","name":"actor","type":"address"}],"name":"RiskConfigUpdated","type":"event"},{"anonymous":false,"inputs":[{"indexed":true,"internalType":"bytes32","name":"role","type":"bytes32"},{"indexed":true,"internalType":"address","name":"account","type":"address"},{"indexed":true,"internalType":"address","name":"sender","type":"address"}],"name":"RoleGranted","type":"event"},{"inputs":[],"name":"ADMIN_ROLE","outputs":[{"internalType":"bytes32","name":"","type":"bytes32"}],"stateMutability":"view","type":"function"},{"inputs":[],"name":"EMERGENCY_ROLE","outputs":[{"internalType":"bytes32","name":"","type":"bytes32"}],"stateMutability":"view","type":"function"},{"inputs":[],"name":"activeCycleId","outputs":[{"internalType":"bytes32","name":"","type":"bytes32"}],"stateMutability":"view","type":"function"},{"inputs":[],"name":"asterDexRouter","outputs":[{"internalType":"contract IAsterDexEarnRouter","name":"","type":"address"}],"stateMutability":"view","type":"function"},{"inputs":[],"name":"cooldownSeconds","outputs":[{"internalType":"uint256","name":"","type":"uint256"}],"stateMutability":"view","type":"function"},{"inputs":[],"name":"cycleState","outputs":[{"internalType":"enum BscAutonomousStrategy.CycleState","name":"","type":"uint8"}],"stateMutability":"view","type":"function"},{"inputs":[{"internalType":"bytes32","name":"role","type":"bytes32"},{"internalType":"address","name":"account","type":"address"}],"name":"grantRole","outputs":[],"stateMutability":"nonpayable","type":"function"},{"inputs":[{"internalType":"bytes32","name":"role","type":"bytes32"},{"internalType":"address","name":"account","type":"address"}],"name":"hasRole","outputs":[{"internalType":"bool","name":"","type":"bool"}],"stateMutability":"view","type":"function"},{"inputs":[],"name":"lastExecutionAt","outputs":[{"internalType":"uint256","name":"","type":"uint256"}],"stateMutability":"view","type":"function"},{"inputs":[],"name":"lastTransitionNonce","outputs":[{"internalType":"uint256","name":"","type":"uint256"}],"stateMutability":"view","type":"function"},{"inputs":[],"name":"maxAmountRaw","outputs":[{"internalType":"uint256","name":"","type":"uint256"}],"stateMutability":"view","type":"function"},{"inputs":[],"name":"paused","outputs":[{"internalType":"bool","name":"","type":"bool"}],"stateMutability":"view","type":"function"},{"inputs":[],"name":"recoverFromHalt","outputs":[],"stateMutability":"nonpayable","type":"function"},{"inputs":[{"components":[{"internalType":"bytes32","name":"cycleId","type":"bytes32"},{"internalType":"uint256","name":"transitionNonce","type":"uint256"},{"internalType":"uint256","name":"amountRaw","type":"uint256"},{"internalType":"address","name":"tokenIn","type":"address"},{"internalType":"address","name":"tokenOut","type":"address"},{"internalType":"bytes","name":"routeData","type":"bytes"},{"internalType":"bytes32","name":"routeDataHash","type":"bytes32"},{"internalType":"bool","name":"emergencyOverride","type":"bool"}],"internalType":"struct BscAutonomousStrategy.CycleRequest","name":"req","type":"tuple"}],"name":"runDeterministicCycle","outputs":[{"internalType":"bytes32","name":"transitionId","type":"bytes32"},{"internalType":"bytes32","name":"routeExecutionId","type":"bytes32"}],"stateMutability":"nonpayable","type":"function"},{"inputs":[{"internalType":"bool","name":"value","type":"bool"},{"internalType":"string","name":"reason","type":"string"}],"name":"setEmergencyPause","outputs":[],"stateMutability":"nonpayable","type":"function"},{"inputs":[{"internalType":"uint256","name":"newMaxAmountRaw","type":"uint256"},{"internalType":"uint256","name":"newCooldownSeconds","type":"uint256"}],"name":"setRiskConfig","outputs":[],"stateMutability":"nonpayable","type":"function"}],"evm":{"bytecode":{"linkReferences":{},"object":"60a06040523480156200001157600080fd5b506040516200144138038062001441833981016040819052620000349162000256565b6001600160a01b038516620000825760405162461bcd60e51b815260206004820152600f60248201526e1c9bdd5d195c97dc995c5d5a5c9959608a1b60448201526064015b60405180910390fd5b6001600160a01b038216620000cb5760405162461bcd60e51b815260206004820152600e60248201526d18591b5a5b97dc995c5d5a5c995960921b604482015260640162000079565b6001600160a01b038116620001185760405162461bcd60e51b8152602060048201526012602482015271195b595c99d95b98de57dc995c5d5a5c995960721b604482015260640162000079565b6001600160a01b03858116608052600585905560068490556001805460ff19908116825584831660008181527f7d7ffb7a348e1c6a02869081a26547b49160dd3df72d1d75a570eb9b698292ec60209081526040808320805486168717905595871682527f3c1b1854ab1360abbb06c8d4c6b2672d4b8cedc5eff522ab19e51d5cb8fdbd469052848120805490931690931790915591513392917fa49807205ce4d355092ef5a8a18f56e8913cf4a201fbe287825b095693c2177591600080516020620014218339815191529190a460405133906001600160a01b038316907fbf233dd2aafeb4d50879c4aa5c81e96d92f6e6945c906a58f9f2d1c1631b4b26906000805160206200142183398151915290600090a45050505050620002b4565b80516001600160a01b03811681146200025157600080fd5b919050565b600080600080600060a086880312156200026f57600080fd5b6200027a8662000239565b94506020860151935060408601519250620002986060870162000239565b9150620002a86080870162000239565b90509295509295909350565b60805161114a620002d7600039600081816101620152610a67015261114a6000f3fe608060405234801561001057600080fd5b50600436106101005760003560e01c80636b76167d11610097578063b8221bc411610066578063b8221bc414610244578063bc27389d1461024d578063c751660914610275578063da3f1b441461027e57600080fd5b80636b76167d146101e757806375b238fc146101f05780638de21c7a1461021757806391d148541461023157600080fd5b80634897e9d2116100d35780634897e9d21461019c57806350810df5146101a45780635c975abb146101b75780635cc5046f146101d457600080fd5b806320df435914610105578063216e1f9a1461013f5780632f2ff15d146101485780633e9d7e0c1461015d575b600080fd5b61012c7fbf233dd2aafeb4d50879c4aa5c81e96d92f6e6945c906a58f9f2d1c1631b4b2681565b6040519081526020015b60405180910390f35b61012c60055481565b61015b610156366004610d98565b610287565b005b6101847f000000000000000000000000000000000000000000000000000000000000000081565b6040516001600160a01b039091168152602001610136565b61015b6103a3565b61015b6101b2366004610dc4565b610498565b6007546101c49060ff1681565b6040519015158152602001610136565b61015b6101e2366004610df7565b610552565b61012c60035481565b61012c7fa49807205ce4d355092ef5a8a18f56e8913cf4a201fbe287825b095693c2177581565b6001546102249060ff1681565b6040516101369190610eb4565b6101c461023f366004610d98565b610604565b61012c60065481565b61026061025b366004610ec2565b61062f565b60408051928352602083019190915201610136565b61012c60025481565b61012c60045481565b3360009081527f7d7ffb7a348e1c6a02869081a26547b49160dd3df72d1d75a570eb9b698292ec60205260409020547fa49807205ce4d355092ef5a8a18f56e8913cf4a201fbe287825b095693c217759060ff166103005760405162461bcd60e51b81526004016102f790610f05565b60405180910390fd5b6001600160a01b0382166103495760405162461bcd60e51b815260206004820152601060248201526f1858d8dbdd5b9d17dc995c5d5a5c995960821b60448201526064016102f7565b6000838152602081815260408083206001600160a01b0386168085529252808320805460ff1916600117905551339286917f2f8788117e7eff1d82e926ec794901d17c78024a50270940304540a733656f0d9190a4505050565b3360009081526000805160206110f583398151915260205260409020547fbf233dd2aafeb4d50879c4aa5c81e96d92f6e6945c906a58f9f2d1c1631b4b269060ff166104015760405162461bcd60e51b81526004016102f790610f05565b600360015460ff16600381111561041a5761041a610e7c565b146104545760405162461bcd60e51b815260206004820152600a6024820152691b9bdd17da185b1d195960b21b60448201526064016102f7565b6001805460ff1916815560038054600254604051919390926000805160206110d58339815191529261048d926000913391908390610f2c565b60405180910390a350565b3360009081527f7d7ffb7a348e1c6a02869081a26547b49160dd3df72d1d75a570eb9b698292ec60205260409020547fa49807205ce4d355092ef5a8a18f56e8913cf4a201fbe287825b095693c217759060ff166105085760405162461bcd60e51b81526004016102f790610f05565b60058390556006829055604080518481526020810184905233917f908c94d1fa702ad0cb87ce082312965a42f4735ff41faf5d8f19108b1e5051a9910160405180910390a2505050565b3360009081526000805160206110f583398151915260205260409020547fbf233dd2aafeb4d50879c4aa5c81e96d92f6e6945c906a58f9f2d1c1631b4b269060ff166105b05760405162461bcd60e51b81526004016102f790610f05565b6007805460ff19168515159081179091556040513391907fb56db74ea3b2ab83578101dc76a27a1c1fb21f532c09705f231f54a9ede60b3a906105f69087908790610f95565b60405180910390a350505050565b6000828152602081815260408083206001600160a01b038516845290915290205460ff165b92915050565b600080610643610100840160e08501610fb1565b60075460ff16156106ea57806106845760405162461bcd60e51b81526020600482015260066024820152651c185d5cd95960d21b60448201526064016102f7565b3360009081526000805160206110f5833981519152602052604090205460ff166106ea5760405162461bcd60e51b8152602060048201526017602482015276195b595c99d95b98de57dc9bdb1957dc995c5d5a5c9959604a1b60448201526064016102f7565b6106fb610100850160e08601610fb1565b1561076b573360009081526000805160206110f5833981519152602052604090205460ff166107665760405162461bcd60e51b8152602060048201526017602482015276195b595c99d95b98de57dc9bdb1957dc995c5d5a5c9959604a1b60448201526064016102f7565b6107ba565b3332146107ba5760405162461bcd60e51b815260206004820152601d60248201527f6d616e75616c5f6f766572726964655f706174685f72656a656374656400000060448201526064016102f7565b60008460400135116108005760405162461bcd60e51b815260206004820152600f60248201526e185b5bdd5b9d17dc995c5d5a5c9959608a1b60448201526064016102f7565b6005548460400135111561084b5760405162461bcd60e51b8152602060048201526012602482015271185b5bdd5b9d17d8589bdd9957d9dd585c9960721b60448201526064016102f7565b600354610859906001610fce565b8460200135146108ab5760405162461bcd60e51b815260206004820152601860248201527f696e76616c69645f7472616e736974696f6e5f6e6f6e6365000000000000000060448201526064016102f7565b60c08401356108bd60a0860186610fef565b6040516108cb92919061103d565b6040518091039020146109165760405162461bcd60e51b81526020600482015260136024820152720e4deeae8cabed0c2e6d0bedad2e6dac2e8c6d606b1b60448201526064016102f7565b600060015460ff16600381111561092f5761092f610e7c565b1461096d5760405162461bcd60e51b815260206004820152600e60248201526d73746174655f6e6f745f69646c6560901b60448201526064016102f7565b60065460045461097d9190610fce565b4210156109be5760405162461bcd60e51b815260206004820152600f60248201526e636f6f6c646f776e5f61637469766560881b60448201526064016102f7565b83356002819055604080516020808201939093529186013582820152850135606082015260c08086013560808301524660a08301520160408051601f198184030181529190528051602091820120935084013584356000805160206110d58339815191526000600133610a386101008b0160e08c01610fb1565b8a60c00135604051610a4e959493929190610f2c565b60405180910390a36001805460ff1916811790556000807f00000000000000000000000000000000000000000000000000000000000000006001600160a01b031663b5fd23416040880135610aa960808a0160608b0161104d565b610ab960a08b0160808c0161104d565b610ac660a08c018c610fef565b6040518663ffffffff1660e01b8152600401610ae6959493929190611068565b60408051808303816000875af1158015610b04573d6000803e3d6000fd5b505050506040513d601f19601f82011682018060405250810190610b2891906110a6565b915091508093508115610c83576001805460ff191660021781556020870135908735907f747a533fc41b64d66712fe893b473d61d808a2afbcc1bd632d79b0f17f5453cc90610b7e6101008b0160e08c01610fb1565b6040805192151583529015156020830152808b0135908201526060810185905260a06080820181905260169082015275185cdd195c99195e17d9585c9b97d95e1958dd5d195960521b60c082015260e00160405180910390a3602086013586356000805160206110d58339815191526001600233610c036101008d0160e08e01610fb1565b8c60c00135604051610c19959493929190610f2c565b60405180910390a36001805460ff19169055426004556020860135600381905586356000805160206110d58339815191526002600033610c606101008d0160e08e01610fb1565b8c60c00135604051610c76959493929190610f2c565b60405180910390a3610d74565b6001805460ff1916600390811790915560208701359081905586357f747a533fc41b64d66712fe893b473d61d808a2afbcc1bd632d79b0f17f5453cc6000610cd26101008b0160e08c01610fb1565b6040805192151583529015156020830152808b0135908201526060810185905260a06080820181905260149082015273185cdd195c99195e17d9585c9b97d9985a5b195960621b60c082015260e00160405180910390a3602086013586356000805160206110d58339815191526001600333610d556101008d0160e08e01610fb1565b8c60c00135604051610d6b959493929190610f2c565b60405180910390a35b505050915091565b80356001600160a01b0381168114610d9357600080fd5b919050565b60008060408385031215610dab57600080fd5b82359150610dbb60208401610d7c565b90509250929050565b60008060408385031215610dd757600080fd5b50508035926020909101359150565b8015158114610df457600080fd5b50565b600080600060408486031215610e0c57600080fd5b8335610e1781610de6565b9250602084013567ffffffffffffffff80821115610e3457600080fd5b818601915086601f830112610e4857600080fd5b813581811115610e5757600080fd5b876020828501011115610e6957600080fd5b6020830194508093505050509250925092565b634e487b7160e01b600052602160045260246000fd5b60048110610eb057634e487b7160e01b600052602160045260246000fd5b9052565b602081016106298284610e92565b600060208284031215610ed457600080fd5b813567ffffffffffffffff811115610eeb57600080fd5b82016101008185031215610efe57600080fd5b9392505050565b6020808252600d908201526c1c9bdb1957dc995c5d5a5c9959609a1b604082015260600190565b60a08101610f3a8288610e92565b610f476020830187610e92565b6001600160a01b03949094166040820152911515606083015260809091015292915050565b81835281816020850137506000828201602090810191909152601f909101601f19169091010190565b602081526000610fa9602083018486610f6c565b949350505050565b600060208284031215610fc357600080fd5b8135610efe81610de6565b8082018082111561062957634e487b7160e01b600052601160045260246000fd5b6000808335601e1984360301811261100657600080fd5b83018035915067ffffffffffffffff82111561102157600080fd5b60200191503681900382131561103657600080fd5b9250929050565b8183823760009101908152919050565b60006020828403121561105f57600080fd5b610efe82610d7c565b8581526001600160a01b0385811660208301528416604082015260806060820181905260009061109b9083018486610f6c565b979650505050505050565b600080604083850312156110b957600080fd5b82516110c481610de6565b602093909301519294929350505056fe546a6914cabc6805440325fbbc8b2791442a4a2df0c53c5a160225ab79ab8f563c1b1854ab1360abbb06c8d4c6b2672d4b8cedc5eff522ab19e51d5cb8fdbd46a26469706673582212205a03524b678ee0f8d86e1818fe69a2ca3a1b4b392b800b78e46bfb9763e72cee64736f6c634300081800332f8788117e7eff1d82e926ec794901d17c78024a50270940304540a733656f0d","opcodes":"PUSH1 0xA0 PUSH1 0x40 MSTORE CALLVALUE DUP1 ISZERO PUSH3 0x11 JUMPI PUSH1 0x0 DUP1 REVERT JUMPDEST POP PUSH1 0x40 MLOAD PUSH3 0x1441 CODESIZE SUB DUP1 PUSH3 0x1441 DUP4 CODECOPY DUP2 ADD PUSH1 0x40 DUP2 SWAP1 MSTORE PUSH3 0x34 SWAP2 PUSH3 0x256 JUMP JUMPDEST PUSH1 0x1 PUSH1 0x1 PUSH1 0xA0 SHL SUB DUP6 AND PUSH3 0x82 JUMPI PUSH1 0x40 MLOAD PUSH3 0x461BCD PUSH1 0xE5 SHL DUP2 MSTORE PUSH1 0x20 PUSH1 0x4 DUP3 ADD MSTORE PUSH1 0xF PUSH1 0x24 DUP3 ADD MSTORE PUSH15 0x1C9BDD5D195C97DC995C5D5A5C9959 PUSH1 0x8A SHL PUSH1 0x44 DUP3 ADD MSTORE PUSH1 0x64 ADD JUMPDEST PUSH1 0x40 MLOAD DUP1 SWAP2 SUB SWAP1 REVERT JUMPDEST PUSH1 0x1 PUSH1 0x1 PUSH1 0xA0 SHL SUB DUP3 AND PUSH3 0xCB JUMPI PUSH1 0x40 MLOAD PUSH3 0x461BCD PUSH1 0xE5 SHL DUP2 MSTORE PUSH1 0x20 PUSH1 0x4 DUP3 ADD MSTORE PUSH1 0xE PUSH1 0x24 DUP3 ADD MSTORE PUSH14 0x18591B5A5B97DC995C5D5A5C9959 PUSH1 0x92 SHL PUSH1 0x44 DUP3 ADD MSTORE PUSH1 0x64 ADD PUSH3 0x79 JUMP JUMPDEST PUSH1 0x1 PUSH1 0x1 PUSH1 0xA0 SHL SUB DUP2 AND PUSH3 0x118 JUMPI PUSH1 0x40 MLOAD PUSH3 0x461BCD PUSH1 0xE5 SHL DUP2 MSTORE PUSH1 0x20 PUSH1 0x4 DUP3 ADD MSTORE PUSH1 0x12 PUSH1 0x24 DUP3 ADD MSTORE PUSH18 0x195B595C99D95B98DE57DC995C5D5A5C9959 PUSH1 0x72 SHL PUSH1 0x44 DUP3 ADD MSTORE PUSH1 0x64 ADD PUSH3 0x79 JUMP JUMPDEST PUSH1 0x1 PUSH1 0x1 PUSH1 0xA0 SHL SUB DUP6 DUP2 AND PUSH1 0x80 MSTORE PUSH1 0x5 DUP6 SWAP1 SSTORE PUSH1 0x6 DUP5 SWAP1 SSTORE PUSH1 0x1 DUP1 SLOAD PUSH1 0xFF NOT SWAP1 DUP2 AND DUP3 SSTORE DUP5 DUP4 AND PUSH1 0x0 DUP2 DUP2 MSTORE PUSH32 0x7D7FFB7A348E1C6A02869081A26547B49160DD3DF72D1D75A570EB9B698292EC PUSH1 0x20 SWAP1 DUP2 MSTORE PUSH1 0x40 DUP1 DUP4 KECCAK256 DUP1 SLOAD DUP7 AND DUP8 OR SWAP1 SSTORE SWAP6 DUP8 AND DUP3 MSTORE PUSH32 0x3C1B1854AB1360ABBB06C8D4C6B2672D4B8CEDC5EFF522AB19E51D5CB8FDBD46 SWAP1 MSTORE DUP5 DUP2 KECCAK256 DUP1 SLOAD SWAP1 SWAP4 AND SWAP1 SWAP4 OR SWAP1 SWAP2 SSTORE SWAP2 MLOAD CALLER SWAP3 SWAP2 PUSH32 0xA49807205CE4D355092EF5A8A18F56E8913CF4A201FBE287825B095693C21775 SWAP2 PUSH1 0x0 DUP1 MLOAD PUSH1 0x20 PUSH3 0x1421 DUP4 CODECOPY DUP2 MLOAD SWAP2 MSTORE SWAP2 SWAP1 LOG4 PUSH1 0x40 MLOAD CALLER SWAP1 PUSH1 0x1 PUSH1 0x1 PUSH1 0xA0 SHL SUB DUP4 AND SWAP1 PUSH32 0xBF233DD2AAFEB4D50879C4AA5C81E96D92F6E6945C906A58F9F2D1C1631B4B26 SWAP1 PUSH1 0x0 DUP1 MLOAD PUSH1 0x20 PUSH3 0x1421 DUP4 CODECOPY DUP2 MLOAD SWAP2 MSTORE SWAP1 PUSH1 0x0 SWAP1 LOG4 POP POP POP POP POP PUSH3 0x2B4 JUMP JUMPDEST DUP1 MLOAD PUSH1 0x1 PUSH1 0x1 PUSH1 0xA0 SHL SUB DUP2 AND DUP2 EQ PUSH3 0x251 JUMPI PUSH1 0x0 DUP1 REVERT JUMPDEST SWAP2 SWAP1 POP JUMP JUMPDEST PUSH1 0x0 DUP1 PUSH1 0x0 DUP1 PUSH1 0x0 PUSH1 0xA0 DUP7 DUP9 SUB SLT ISZERO PUSH3 0x26F JUMPI PUSH1 0x0 DUP1 REVERT JUMPDEST PUSH3 0x27A DUP7 PUSH3 0x239 JUMP JUMPDEST SWAP5 POP PUSH1 0x20 DUP7 ADD MLOAD SWAP4 POP PUSH1 0x40 DUP7 ADD MLOAD SWAP3 POP PUSH3 0x298 PUSH1 0x60 DUP8 ADD PUSH3 0x239 JUMP JUMPDEST SWAP2 POP PUSH3 0x2A8 PUSH1 0x80 DUP8 ADD PUSH3 0x239 JUMP JUMPDEST SWAP1 POP SWAP3 SWAP6 POP SWAP3 SWAP6 SWAP1 SWAP4 POP JUMP JUMPDEST PUSH1 0x80 MLOAD PUSH2 0x114A PUSH3 0x2D7 PUSH1 0x0 CODECOPY PUSH1 0x0 DUP2 DUP2 PUSH2 0x162 ADD MSTORE PUSH2 0xA67 ADD MSTORE PUSH2 0x114A PUSH1 0x0 RETURN INVALID PUSH1 0x80 PUSH1 0x40 MSTORE CALLVALUE DUP1 ISZERO PUSH2 0x10 JUMPI PUSH1 0x0 DUP1 REVERT JUMPDEST POP PUSH1 0x4 CALLDATASIZE LT PUSH2 0x100 JUMPI PUSH1 0x0 CALLDATALOAD PUSH1 0xE0 SHR DUP1 PUSH4 0x6B76167D GT PUSH2 0x97 JUMPI DUP1 PUSH4 0xB8221BC4 GT PUSH2 0x66 JUMPI DUP1 PUSH4 0xB8221BC4 EQ PUSH2 0x244 JUMPI DUP1 PUSH4 0xBC27389D EQ PUSH2 0x24D JUMPI DUP1 PUSH4 0xC7516609 EQ PUSH2 0x275 JUMPI DUP1 PUSH4 0xDA3F1B44 EQ PUSH2 0x27E JUMPI PUSH1 0x0 DUP1 REVERT JUMPDEST DUP1 PUSH4 0x6B76167D EQ PUSH2 0x1E7 JUMPI DUP1 PUSH4 0x75B238FC EQ PUSH2 0x1F0 JUMPI DUP1 PUSH4 0x8DE21C7A EQ PUSH2 0x217 JUMPI DUP1 PUSH4 0x91D14854 EQ PUSH2 0x231 JUMPI PUSH1 0x0 DUP1 REVERT JUMPDEST DUP1 PUSH4 0x4897E9D2 GT PUSH2 0xD3 JUMPI DUP1 PUSH4 0x4897E9D2 EQ PUSH2 0x19C JUMPI DUP1 PUSH4 0x50810DF5 EQ PUSH2 0x1A4 JUMPI DUP1 PUSH4 0x5C975ABB EQ PUSH2 0x1B7 JUMPI DUP1 PUSH4 0x5CC5046F EQ PUSH2 0x1D4 JUMPI PUSH1 0x0 DUP1 REVERT JUMPDEST DUP1 PUSH4 0x20DF4359 EQ PUSH2 0x105 JUMPI DUP1 PUSH4 0x216E1F9A EQ PUSH2 0x13F JUMPI DUP1 PUSH4 0x2F2FF15D EQ PUSH2 0x148 JUMPI DUP1 PUSH4 0x3E9D7E0C EQ PUSH2 0x15D JUMPI JUMPDEST PUSH1 0x0 DUP1 REVERT JUMPDEST PUSH2 0x12C PUSH32 0xBF233DD2AAFEB4D50879C4AA5C81E96D92F6E6945C906A58F9F2D1C1631B4B26 DUP2 JUMP JUMPDEST PUSH1 0x40 MLOAD SWAP1 DUP2 MSTORE PUSH1 0x20 ADD JUMPDEST PUSH1 0x40 MLOAD DUP1 SWAP2 SUB SWAP1 RETURN JUMPDEST PUSH2 0x12C PUSH1 0x5 SLOAD DUP2 JUMP JUMPDEST PUSH2 0x15B PUSH2 0x156 CALLDATASIZE PUSH1 0x4 PUSH2 0xD98 JUMP JUMPDEST PUSH2 0x287 JUMP JUMPDEST STOP JUMPDEST PUSH2 0x184 PUSH32 0x0 DUP2 JUMP JUMPDEST PUSH1 0x40 MLOAD PUSH1 0x1 PUSH1 0x1 PUSH1 0xA0 SHL SUB SWAP1 SWAP2 AND DUP2 MSTORE PUSH1 0x20 ADD PUSH2 0x136 JUMP JUMPDEST PUSH2 0x15B PUSH2 0x3A3 JUMP JUMPDEST PUSH2 0x15B PUSH2 0x1B2 CALLDATASIZE PUSH1 0x4 PUSH2 0xDC4 JUMP JUMPDEST PUSH2 0x498 JUMP JUMPDEST PUSH1 0x7 SLOAD PUSH2 0x1C4 SWAP1 PUSH1 0xFF AND DUP2 JUMP JUMPDEST PUSH1 0x40 MLOAD SWAP1 ISZERO ISZERO DUP2 MSTORE PUSH1 0x20 ADD PUSH2 0x136 JUMP JUMPDEST PUSH2 0x15B PUSH2 0x1E2 CALLDATASIZE PUSH1 0x4 PUSH2 0xDF7 JUMP JUMPDEST PUSH2 0x552 JUMP JUMPDEST PUSH2 0x12C PUSH1 0x3 SLOAD DUP2 JUMP JUMPDEST PUSH2 0x12C PUSH32 0xA49807205CE4D355092EF5A8A18F56E8913CF4A201FBE287825B095693C21775 DUP2 JUMP JUMPDEST PUSH1 0x1 SLOAD PUSH2 0x224 SWAP1 PUSH1 0xFF AND DUP2 JUMP JUMPDEST PUSH1 0x40 MLOAD PUSH2 0x136 SWAP2 SWAP1 PUSH2 0xEB4 JUMP JUMPDEST PUSH2 0x1C4 PUSH2 0x23F CALLDATASIZE PUSH1 0x4 PUSH2 0xD98 JUMP JUMPDEST PUSH2 0x604 JUMP JUMPDEST PUSH2 0x12C PUSH1 0x6 SLOAD DUP2 JUMP JUMPDEST PUSH2 0x260 PUSH2 0x25B CALLDATASIZE PUSH1 0x4 PUSH2 0xEC2 JUMP JUMPDEST PUSH2 0x62F JUMP JUMPDEST PUSH1 0x40 DUP1 MLOAD SWAP3 DUP4 MSTORE PUSH1 0x20 DUP4 ADD SWAP2 SWAP1 SWAP2 MSTORE ADD PUSH2 0x136 JUMP JUMPDEST PUSH2 0x12C PUSH1 0x2 SLOAD DUP2 JUMP JUMPDEST PUSH2 0x12C PUSH1 0x4 SLOAD DUP2 JUMP JUMPDEST CALLER PUSH1 0x0 SWAP1 DUP2 MSTORE PUSH32 0x7D7FFB7A348E1C6A02869081A26547B49160DD3DF72D1D75A570EB9B698292EC PUSH1 0x20 MSTORE PUSH1 0x40 SWAP1 KECCAK256 SLOAD PUSH32 0xA49807205CE4D355092EF5A8A18F56E8913CF4A201FBE287825B095693C21775 SWAP1 PUSH1 0xFF AND PUSH2 0x300 JUMPI PUSH1 0x40 MLOAD PUSH3 0x461BCD PUSH1 0xE5 SHL DUP2 MSTORE PUSH1 0x4 ADD PUSH2 0x2F7 SWAP1 PUSH2 0xF05 JUMP JUMPDEST PUSH1 0x40 MLOAD DUP1 SWAP2 SUB SWAP1 REVERT JUMPDEST PUSH1 0x1 PUSH1 0x1 PUSH1 0xA0 SHL SUB DUP3 AND PUSH2 0x349 JUMPI PUSH1 0x40 MLOAD PUSH3 0x461BCD PUSH1 0xE5 SHL DUP2 MSTORE PUSH1 0x20 PUSH1 0x4 DUP3 ADD MSTORE PUSH1 0x10 PUSH1 0x24 DUP3 ADD MSTORE PUSH16 0x1858D8DBDD5B9D17DC995C5D5A5C9959 PUSH1 0x82 SHL PUSH1 0x44 DUP3 ADD MSTORE PUSH1 0x64 ADD PUSH2 0x2F7 JUMP JUMPDEST PUSH1 0x0 DUP4 DUP2 MSTORE PUSH1 0x20 DUP2 DUP2 MSTORE PUSH1 0x40 DUP1 DUP4 KECCAK256 PUSH1 0x1 PUSH1 0x1 PUSH1 0xA0 SHL SUB DUP7 AND DUP1 DUP6 MSTORE SWAP3 MSTORE DUP1 DUP4 KECCAK256 DUP1 SLOAD PUSH1 0xFF NOT AND PUSH1 0x1 OR SWAP1 SSTORE MLOAD CALLER SWAP3 DUP7 SWAP2 PUSH32 0x2F8788117E7EFF1D82E926EC794901D17C78024A50270940304540A733656F0D SWAP2 SWAP1 LOG4 POP POP POP JUMP JUMPDEST CALLER PUSH1 0x0 SWAP1 DUP2 MSTORE PUSH1 0x0 DUP1 MLOAD PUSH1 0x20 PUSH2 0x10F5 DUP4 CODECOPY DUP2 MLOAD SWAP2 MSTORE PUSH1 0x20 MSTORE PUSH1 0x40 SWAP1 KECCAK256 SLOAD PUSH32 0xBF233DD2AAFEB4D50879C4AA5C81E96D92F6E6945C906A58F9F2D1C1631B4B26 SWAP1 PUSH1 0xFF AND PUSH2 0x401 JUMPI PUSH1 0x40 MLOAD PUSH3 0x461BCD PUSH1 0xE5 SHL DUP2 MSTORE PUSH1 0x4 ADD PUSH2 0x2F7 SWAP1 PUSH2 0xF05 JUMP JUMPDEST PUSH1 0x3 PUSH1 0x1 SLOAD PUSH1 0xFF AND PUSH1 0x3 DUP2 GT ISZERO PUSH2 0x41A JUMPI PUSH2 0x41A PUSH2 0xE7C JUMP JUMPDEST EQ PUSH2 0x454 JUMPI PUSH1 0x40 MLOAD PUSH3 0x461BCD PUSH1 0xE5 SHL DUP2 MSTORE PUSH1 0x20 PUSH1 0x4 DUP3 ADD MSTORE PUSH1 0xA PUSH1 0x24 DUP3 ADD MSTORE PUSH10 0x1B9BDD17DA185B1D1959 PUSH1 0xB2 SHL PUSH1 0x44 DUP3 ADD MSTORE PUSH1 0x64 ADD PUSH2 0x2F7 JUMP JUMPDEST PUSH1 0x1 DUP1 SLOAD PUSH1 0xFF NOT AND DUP2 SSTORE PUSH1 0x3 DUP1 SLOAD PUSH1 0x2 SLOAD PUSH1 0x40 MLOAD SWAP2 SWAP4 SWAP1 SWAP3 PUSH1 0x0 DUP1 MLOAD PUSH1 0x20 PUSH2 0x10D5 DUP4 CODECOPY DUP2 MLOAD SWAP2 MSTORE SWAP3 PUSH2 0x48D SWAP3 PUSH1 0x0 SWAP2 CALLER SWAP2 SWAP1 DUP4 SWAP1 PUSH2 0xF2C JUMP JUMPDEST PUSH1 0x40 MLOAD DUP1 SWAP2 SUB SWAP1 LOG3 POP JUMP JUMPDEST CALLER PUSH1 0x0 SWAP1 DUP2 MSTORE PUSH32 0x7D7FFB7A348E1C6A02869081A26547B49160DD3DF72D1D75A570EB9B698292EC PUSH1 0x20 MSTORE PUSH1 0x40 SWAP1 KECCAK256 SLOAD PUSH32 0xA49807205CE4D355092EF5A8A18F56E8913CF4A201FBE287825B095693C21775 SWAP1 PUSH1 0xFF AND PUSH2 0x508 JUMPI PUSH1 0x40 MLOAD PUSH3 0x461BCD PUSH1 0xE5 SHL DUP2 MSTORE PUSH1 0x4 ADD PUSH2 0x2F7 SWAP1 PUSH2 0xF05 JUMP JUMPDEST PUSH1 0x5 DUP4 SWAP1 SSTORE PUSH1 0x6 DUP3 SWAP1 SSTORE PUSH1 0x40 DUP1 MLOAD DUP5 DUP2 MSTORE PUSH1 0x20 DUP2 ADD DUP5 SWAP1 MSTORE CALLER SWAP2 PUSH32 0x908C94D1FA702AD0CB87CE082312965A42F4735FF41FAF5D8F19108B1E5051A9 SWAP2 ADD PUSH1 0x40 MLOAD DUP1 SWAP2 SUB SWAP1 LOG2 POP POP POP JUMP JUMPDEST CALLER PUSH1 0x0 SWAP1 DUP2 MSTORE PUSH1 0x0 DUP1 MLOAD PUSH1 0x20 PUSH2 0x10F5 DUP4 CODECOPY DUP2 MLOAD SWAP2 MSTORE PUSH1 0x20 MSTORE PUSH1 0x40 SWAP1 KECCAK256 SLOAD PUSH32 0xBF233DD2AAFEB4D50879C4AA5C81E96D92F6E6945C906A58F9F2D1C1631B4B26 SWAP1 PUSH1 0xFF AND PUSH2 0x5B0 JUMPI PUSH1 0x40 MLOAD PUSH3 0x461BCD PUSH1 0xE5 SHL DUP2 MSTORE PUSH1 0x4 ADD PUSH2 0x2F7 SWAP1 PUSH2 0xF05 JUMP JUMPDEST PUSH1 0x7 DUP1 SLOAD PUSH1 0xFF NOT AND DUP6 ISZERO ISZERO SWAP1 DUP2 OR SWAP1 SWAP2 SSTORE PUSH1 0x40 MLOAD CALLER SWAP2 SWAP1 PUSH32 0xB56DB74EA3B2AB83578101DC76A27A1C1FB21F532C09705F231F54A9EDE60B3A SWAP1 PUSH2 0x5F6 SWAP1 DUP8 SWAP1 DUP8 SWAP1 PUSH2 0xF95 JUMP JUMPDEST PUSH1 0x40 MLOAD DUP1 SWAP2 SUB SWAP1 LOG3 POP POP POP POP JUMP JUMPDEST PUSH1 0x0 DUP3 DUP2 MSTORE PUSH1 0x20 DUP2 DUP2 MSTORE PUSH1 0x40 DUP1 DUP4 KECCAK256 PUSH1 0x1 PUSH1 0x1 PUSH1 0xA0 SHL SUB DUP6 AND DUP5 MSTORE SWAP1 SWAP2 MSTORE SWAP1 KECCAK256 SLOAD PUSH1 0xFF AND JUMPDEST SWAP3 SWAP2 POP POP JUMP JUMPDEST PUSH1 0x0 DUP1 PUSH2 0x643 PUSH2 0x100 DUP5 ADD PUSH1 0xE0 DUP6 ADD PUSH2 0xFB1 JUMP JUMPDEST PUSH1 0x7 SLOAD PUSH1 0xFF AND ISZERO PUSH2 0x6EA JUMPI DUP1 PUSH2 0x684 JUMPI PUSH1 0x40 MLOAD PUSH3 0x461BCD PUSH1 0xE5 SHL DUP2 MSTORE PUSH1 0x20 PUSH1 0x4 DUP3 ADD MSTORE PUSH1 0x6 PUSH1 0x24 DUP3 ADD MSTORE PUSH6 0x1C185D5CD959 PUSH1 0xD2 SHL PUSH1 0x44 DUP3 ADD MSTORE PUSH1 0x64 ADD PUSH2 0x2F7 JUMP JUMPDEST CALLER PUSH1 0x0 SWAP1 DUP2 MSTORE PUSH1 0x0 DUP1 MLOAD PUSH1 0x20 PUSH2 0x10F5 DUP4 CODECOPY DUP2 MLOAD SWAP2 MSTORE PUSH1 0x20 MSTORE PUSH1 0x40 SWAP1 KECCAK256 SLOAD PUSH1 0xFF AND PUSH2 0x6EA JUMPI PUSH1 0x40 MLOAD PUSH3 0x461BCD PUSH1 0xE5 SHL DUP2 MSTORE PUSH1 0x20 PUSH1 0x4 DUP3 ADD MSTORE PUSH1 0x17 PUSH1 0x24 DUP3 ADD MSTORE PUSH23 0x195B595C99D95B98DE57DC9BDB1957DC995C5D5A5C9959 PUSH1 0x4A SHL PUSH1 0x44 DUP3 ADD MSTORE PUSH1 0x64 ADD PUSH2 0x2F7 JUMP JUMPDEST PUSH2 0x6FB PUSH2 0x100 DUP6 ADD PUSH1 0xE0 DUP7 ADD PUSH2 0xFB1 JUMP JUMPDEST ISZERO PUSH2 0x76B JUMPI CALLER PUSH1 0x0 SWAP1 DUP2 MSTORE PUSH1 0x0 DUP1 MLOAD PUSH1 0x20 PUSH2 0x10F5 DUP4 CODECOPY DUP2 MLOAD SWAP2 MSTORE PUSH1 0x20 MSTORE PUSH1 0x40 SWAP1 KECCAK256 SLOAD PUSH1 0xFF AND PUSH2 0x766 JUMPI PUSH1 0x40 MLOAD PUSH3 0x461BCD PUSH1 0xE5 SHL DUP2 MSTORE PUSH1 0x20 PUSH1 0x4 DUP3 ADD MSTORE PUSH1 0x17 PUSH1 0x24 DUP3 ADD MSTORE PUSH23 0x195B595C99D95B98DE57DC9BDB1957DC995C5D5A5C9959 PUSH1 0x4A SHL PUSH1 0x44 DUP3 ADD MSTORE PUSH1 0x64 ADD PUSH2 0x2F7 JUMP JUMPDEST PUSH2 0x7BA JUMP JUMPDEST CALLER ORIGIN EQ PUSH2 0x7BA JUMPI PUSH1 0x40 MLOAD PUSH3 0x461BCD PUSH1 0xE5 SHL DUP2 MSTORE PUSH1 0x20 PUSH1 0x4 DUP3 ADD MSTORE PUSH1 0x1D PUSH1 0x24 DUP3 ADD MSTORE PUSH32 0x6D616E75616C5F6F766572726964655F706174685F72656A6563746564000000 PUSH1 0x44 DUP3 ADD MSTORE PUSH1 0x64 ADD PUSH2 0x2F7 JUMP JUMPDEST PUSH1 0x0 DUP5 PUSH1 0x40 ADD CALLDATALOAD GT PUSH2 0x800 JUMPI PUSH1 0x40 MLOAD PUSH3 0x461BCD PUSH1 0xE5 SHL DUP2 MSTORE PUSH1 0x20 PUSH1 0x4 DUP3 ADD MSTORE PUSH1 0xF PUSH1 0x24 DUP3 ADD MSTORE PUSH15 0x185B5BDD5B9D17DC995C5D5A5C9959 PUSH1 0x8A SHL PUSH1 0x44 DUP3 ADD MSTORE PUSH1 0x64 ADD PUSH2 0x2F7 JUMP JUMPDEST PUSH1 0x5 SLOAD DUP5 PUSH1 0x40 ADD CALLDATALOAD GT ISZERO PUSH2 0x84B JUMPI PUSH1 0x40 MLOAD PUSH3 0x461BCD PUSH1 0xE5 SHL DUP2 MSTORE PUSH1 0x20 PUSH1 0x4 DUP3 ADD MSTORE PUSH1 0x12 PUSH1 0x24 DUP3 ADD MSTORE PUSH18 0x185B5BDD5B9D17D8589BDD9957D9DD585C99 PUSH1 0x72 SHL PUSH1 0x44 DUP3 ADD MSTORE PUSH1 0x64 ADD PUSH2 0x2F7 JUMP JUMPDEST PUSH1 0x3 SLOAD PUSH2 0x859 SWAP1 PUSH1 0x1 PUSH2 0xFCE JUMP JUMPDEST DUP5 PUSH1 0x20 ADD CALLDATALOAD EQ PUSH2 0x8AB JUMPI PUSH1 0x40 MLOAD PUSH3 0x461BCD PUSH1 0xE5 SHL DUP2 MSTORE PUSH1 0x20 PUSH1 0x4 DUP3 ADD MSTORE PUSH1 0x18 PUSH1 0x24 DUP3 ADD MSTORE PUSH32 0x696E76616C69645F7472616E736974696F6E5F6E6F6E63650000000000000000 PUSH1 0x44 DUP3 ADD MSTORE PUSH1 0x64 ADD PUSH2 0x2F7 JUMP JUMPDEST PUSH1 0xC0 DUP5 ADD CALLDATALOAD PUSH2 0x8BD PUSH1 0xA0 DUP7 ADD DUP7 PUSH2 0xFEF JUMP JUMPDEST PUSH1 0x40 MLOAD PUSH2 0x8CB SWAP3 SWAP2 SWAP1 PUSH2 0x103D JUMP JUMPDEST PUSH1 0x40 MLOAD DUP1 SWAP2 SUB SWAP1 KECCAK256 EQ PUSH2 0x916 JUMPI PUSH1 0x40 MLOAD PUSH3 0x461BCD PUSH1 0xE5 SHL DUP2 MSTORE PUSH1 0x20 PUSH1 0x4 DUP3 ADD MSTORE PUSH1 0x13 PUSH1 0x24 DUP3 ADD MSTORE PUSH19 0xE4DEEAE8CABED0C2E6D0BEDAD2E6DAC2E8C6D PUSH1 0x6B SHL PUSH1 0x44 DUP3 ADD MSTORE PUSH1 0x64 ADD PUSH2 0x2F7 JUMP JUMPDEST PUSH1 0x0 PUSH1 0x1 SLOAD PUSH1 0xFF AND PUSH1 0x3 DUP2 GT ISZERO PUSH2 0x92F JUMPI PUSH2 0x92F PUSH2 0xE7C JUMP JUMPDEST EQ PUSH2 0x96D JUMPI PUSH1 0x40 MLOAD PUSH3 0x461BCD PUSH1 0xE5 SHL DUP2 MSTORE PUSH1 0x20 PUSH1 0x4 DUP3 ADD MSTORE PUSH1 0xE PUSH1 0x24 DUP3 ADD MSTORE PUSH14 0x73746174655F6E6F745F69646C65 PUSH1 0x90 SHL PUSH1 0x44 DUP3 ADD MSTORE PUSH1 0x64 ADD PUSH2 0x2F7 JUMP JUMPDEST PUSH1 0x6 SLOAD PUSH1 0x4 SLOAD PUSH2 0x97D SWAP2 SWAP1 PUSH2 0xFCE JUMP JUMPDEST TIMESTAMP LT ISZERO PUSH2 0x9BE JUMPI PUSH1 0x40 MLOAD PUSH3 0x461BCD PUSH1 0xE5 SHL DUP2 MSTORE PUSH1 0x20 PUSH1 0x4 DUP3 ADD MSTORE PUSH1 0xF PUSH1 0x24 DUP3 ADD MSTORE PUSH15 0x636F6F6C646F776E5F616374697665 PUSH1 0x88 SHL PUSH1 0x44 DUP3 ADD MSTORE PUSH1 0x64 ADD PUSH2 0x2F7 JUMP JUMPDEST DUP4 CALLDATALOAD PUSH1 0x2 DUP2 SWAP1 SSTORE PUSH1 0x40 DUP1 MLOAD PUSH1 0x20 DUP1 DUP3 ADD SWAP4 SWAP1 SWAP4 MSTORE SWAP2 DUP7 ADD CALLDATALOAD DUP3 DUP3 ADD MSTORE DUP6 ADD CALLDATALOAD PUSH1 0x60 DUP3 ADD MSTORE PUSH1 0xC0 DUP1 DUP7 ADD CALLDATALOAD PUSH1 0x80 DUP4 ADD MSTORE CHAINID PUSH1 0xA0 DUP4 ADD MSTORE ADD PUSH1 0x40 DUP1 MLOAD PUSH1 0x1F NOT DUP2 DUP5 SUB ADD DUP2 MSTORE SWAP2 SWAP1 MSTORE DUP1 MLOAD PUSH1 0x20 SWAP2 DUP3 ADD KECCAK256 SWAP4 POP DUP5 ADD CALLDATALOAD DUP5 CALLDATALOAD PUSH1 0x0 DUP1 MLOAD PUSH1 0x20 PUSH2 0x10D5 DUP4 CODECOPY DUP2 MLOAD SWAP2 MSTORE PUSH1 0x0 PUSH1 0x1 CALLER PUSH2 0xA38 PUSH2 0x100 DUP12 ADD PUSH1 0xE0 DUP13 ADD PUSH2 0xFB1 JUMP JUMPDEST DUP11 PUSH1 0xC0 ADD CALLDATALOAD PUSH1 0x40 MLOAD PUSH2 0xA4E SWAP6 SWAP5 SWAP4 SWAP3 SWAP2 SWAP1 PUSH2 0xF2C JUMP JUMPDEST PUSH1 0x40 MLOAD DUP1 SWAP2 SUB SWAP1 LOG3 PUSH1 0x1 DUP1 SLOAD PUSH1 0xFF NOT AND DUP2 OR SWAP1 SSTORE PUSH1 0x0 DUP1 PUSH32 0x0 PUSH1 0x1 PUSH1 0x1 PUSH1 0xA0 SHL SUB AND PUSH4 0xB5FD2341 PUSH1 0x40 DUP9 ADD CALLDATALOAD PUSH2 0xAA9 PUSH1 0x80 DUP11 ADD PUSH1 0x60 DUP12 ADD PUSH2 0x104D JUMP JUMPDEST PUSH2 0xAB9 PUSH1 0xA0 DUP12 ADD PUSH1 0x80 DUP13 ADD PUSH2 0x104D JUMP JUMPDEST PUSH2 0xAC6 PUSH1 0xA0 DUP13 ADD DUP13 PUSH2 0xFEF JUMP JUMPDEST PUSH1 0x40 MLOAD DUP7 PUSH4 0xFFFFFFFF AND PUSH1 0xE0 SHL DUP2 MSTORE PUSH1 0x4 ADD PUSH2 0xAE6 SWAP6 SWAP5 SWAP4 SWAP3 SWAP2 SWAP1 PUSH2 0x1068 JUMP JUMPDEST PUSH1 0x40 DUP1 MLOAD DUP1 DUP4 SUB DUP2 PUSH1 0x0 DUP8 GAS CALL ISZERO DUP1 ISZERO PUSH2 0xB04 JUMPI RETURNDATASIZE PUSH1 0x0 DUP1 RETURNDATACOPY RETURNDATASIZE PUSH1 0x0 REVERT JUMPDEST POP POP POP POP PUSH1 0x40 MLOAD RETURNDATASIZE PUSH1 0x1F NOT PUSH1 0x1F DUP3 ADD AND DUP3 ADD DUP1 PUSH1 0x40 MSTORE POP DUP2 ADD SWAP1 PUSH2 0xB28 SWAP2 SWAP1 PUSH2 0x10A6 JUMP JUMPDEST SWAP2 POP SWAP2 POP DUP1 SWAP4 POP DUP2 ISZERO PUSH2 0xC83 JUMPI PUSH1 0x1 DUP1 SLOAD PUSH1 0xFF NOT AND PUSH1 0x2 OR DUP2 SSTORE PUSH1 0x20 DUP8 ADD CALLDATALOAD SWAP1 DUP8 CALLDATALOAD SWAP1 PUSH32 0x747A533FC41B64D66712FE893B473D61D808A2AFBCC1BD632D79B0F17F5453CC SWAP1 PUSH2 0xB7E PUSH2 0x100 DUP12 ADD PUSH1 0xE0 DUP13 ADD PUSH2 0xFB1 JUMP JUMPDEST PUSH1 0x40 DUP1 MLOAD SWAP3 ISZERO ISZERO DUP4 MSTORE SWAP1 ISZERO ISZERO PUSH1 0x20 DUP4 ADD MSTORE DUP1 DUP12 ADD CALLDATALOAD SWAP1 DUP3 ADD MSTORE PUSH1 0x60 DUP2 ADD DUP6 SWAP1 MSTORE PUSH1 0xA0 PUSH1 0x80 DUP3 ADD DUP2 SWAP1 MSTORE PUSH1 0x16 SWAP1 DUP3 ADD MSTORE PUSH22 0x185CDD195C99195E17D9585C9B97D95E1958DD5D1959 PUSH1 0x52 SHL PUSH1 0xC0 DUP3 ADD MSTORE PUSH1 0xE0 ADD PUSH1 0x40 MLOAD DUP1 SWAP2 SUB SWAP1 LOG3 PUSH1 0x20 DUP7 ADD CALLDATALOAD DUP7 CALLDATALOAD PUSH1 0x0 DUP1 MLOAD PUSH1 0x20 PUSH2 0x10D5 DUP4 CODECOPY DUP2 MLOAD SWAP2 MSTORE PUSH1 0x1 PUSH1 0x2 CALLER PUSH2 0xC03 PUSH2 0x100 DUP14 ADD PUSH1 0xE0 DUP15 ADD PUSH2 0xFB1 JUMP JUMPDEST DUP13 PUSH1 0xC0 ADD CALLDATALOAD PUSH1 0x40 MLOAD PUSH2 0xC19 SWAP6 SWAP5 SWAP4 SWAP3 SWAP2 SWAP1 PUSH2 0xF2C JUMP JUMPDEST PUSH1 0x40 MLOAD DUP1 SWAP2 SUB SWAP1 LOG3 PUSH1 0x1 DUP1 SLOAD PUSH1 0xFF NOT AND SWAP1 SSTORE TIMESTAMP PUSH1 0x4 SSTORE PUSH1 0x20 DUP7 ADD CALLDATALOAD PUSH1 0x3 DUP2 SWAP1 SSTORE DUP7 CALLDATALOAD PUSH1 0x0 DUP1 MLOAD PUSH1 0x20 PUSH2 0x10D5 DUP4 CODECOPY DUP2 MLOAD SWAP2 MSTORE PUSH1 0x2 PUSH1 0x0 CALLER PUSH2 0xC60 PUSH2 0x100 DUP14 ADD PUSH1 0xE0 DUP15 ADD PUSH2 0xFB1 JUMP JUMPDEST DUP13 PUSH1 0xC0 ADD CALLDATALOAD PUSH1 0x40 MLOAD PUSH2 0xC76 SWAP6 SWAP5 SWAP4 SWAP3 SWAP2 SWAP1 PUSH2 0xF2C JUMP JUMPDEST PUSH1 0x40 MLOAD DUP1 SWAP2 SUB SWAP1 LOG3 PUSH2 0xD74 JUMP JUMPDEST PUSH1 0x1 DUP1 SLOAD PUSH1 0xFF NOT AND PUSH1 0x3 SWAP1 DUP2 OR SWAP1 SWAP2 SSTORE PUSH1 0x20 DUP8 ADD CALLDATALOAD SWAP1 DUP2 SWAP1 SSTORE DUP7 CALLDATALOAD PUSH32 0x747A533FC41B64D66712FE893B473D61D808A2AFBCC1BD632D79B0F17F5453CC PUSH1 0x0 PUSH2 0xCD2 PUSH2 0x100 DUP12 ADD PUSH1 0xE0 DUP13 ADD PUSH2 0xFB1 JUMP JUMPDEST PUSH1 0x40 DUP1 MLOAD SWAP3 ISZERO ISZERO DUP4 MSTORE SWAP1 ISZERO ISZERO PUSH1 0x20 DUP4 ADD MSTORE DUP1 DUP12 ADD CALLDATALOAD SWAP1 DUP3 ADD MSTORE PUSH1 0x60 DUP2 ADD DUP6 SWAP1 MSTORE PUSH1 0xA0 PUSH1 0x80 DUP3 ADD DUP2 SWAP1 MSTORE PUSH1 0x14 SWAP1 DUP3 ADD MSTORE PUSH20 0x185CDD195C99195E17D9585C9B97D9985A5B1959 PUSH1 0x62 SHL PUSH1 0xC0 DUP3 ADD MSTORE PUSH1 0xE0 ADD PUSH1 0x40 MLOAD DUP1 SWAP2 SUB SWAP1 LOG3 PUSH1 0x20 DUP7 ADD CALLDATALOAD DUP7 CALLDATALOAD PUSH1 0x0 DUP1 MLOAD PUSH1 0x20 PUSH2 0x10D5 DUP4 CODECOPY DUP2 MLOAD SWAP2 MSTORE PUSH1 0x1 PUSH1 0x3 CALLER PUSH2 0xD55 PUSH2 0x100 DUP14 ADD PUSH1 0xE0 DUP15 ADD PUSH2 0xFB1 JUMP JUMPDEST DUP13 PUSH1 0xC0 ADD CALLDATALOAD PUSH1 0x40 MLOAD PUSH2 0xD6B SWAP6 SWAP5 SWAP4 SWAP3 SWAP2 SWAP1 PUSH2 0xF2C JUMP JUMPDEST PUSH1 0x40 MLOAD DUP1 SWAP2 SUB SWAP1 LOG3 JUMPDEST POP POP POP SWAP2 POP SWAP2 JUMP JUMPDEST DUP1 CALLDATALOAD PUSH1 0x1 PUSH1 0x1 PUSH1 0xA0 SHL SUB DUP2 AND DUP2 EQ PUSH2 0xD93 JUMPI PUSH1 0x0 DUP1 REVERT JUMPDEST SWAP2 SWAP1 POP JUMP JUMPDEST PUSH1 0x0 DUP1 PUSH1 0x40 DUP4 DUP6 SUB SLT ISZERO PUSH2 0xDAB JUMPI PUSH1 0x0 DUP1 REVERT JUMPDEST DUP3 CALLDATALOAD SWAP2 POP PUSH2 0xDBB PUSH1 0x20 DUP5 ADD PUSH2 0xD7C JUMP JUMPDEST SWAP1 POP SWAP3 POP SWAP3 SWAP1 POP JUMP JUMPDEST PUSH1 0x0 DUP1 PUSH1 0x40 DUP4 DUP6 SUB SLT ISZERO PUSH2 0xDD7 JUMPI PUSH1 0x0 DUP1 REVERT JUMPDEST POP POP DUP1 CALLDATALOAD SWAP3 PUSH1 0x20 SWAP1 SWAP2 ADD CALLDATALOAD SWAP2 POP JUMP JUMPDEST DUP1 ISZERO ISZERO DUP2 EQ PUSH2 0xDF4 JUMPI PUSH1 0x0 DUP1 REVERT JUMPDEST POP JUMP JUMPDEST PUSH1 0x0 DUP1 PUSH1 0x0 PUSH1 0x40 DUP5 DUP7 SUB SLT ISZERO PUSH2 0xE0C JUMPI PUSH1 0x0 DUP1 REVERT JUMPDEST DUP4 CALLDATALOAD PUSH2 0xE17 DUP2 PUSH2 0xDE6 JUMP JUMPDEST SWAP3 POP PUSH1 0x20 DUP5 ADD CALLDATALOAD PUSH8 0xFFFFFFFFFFFFFFFF DUP1 DUP3 GT ISZERO PUSH2 0xE34 JUMPI PUSH1 0x0 DUP1 REVERT JUMPDEST DUP2 DUP7 ADD SWAP2 POP DUP7 PUSH1 0x1F DUP4 ADD SLT PUSH2 0xE48 JUMPI PUSH1 0x0 DUP1 REVERT JUMPDEST DUP2 CALLDATALOAD DUP2 DUP2 GT ISZERO PUSH2 0xE57 JUMPI PUSH1 0x0 DUP1 REVERT JUMPDEST DUP8 PUSH1 0x20 DUP3 DUP6 ADD ADD GT ISZERO PUSH2 0xE69 JUMPI PUSH1 0x0 DUP1 REVERT JUMPDEST PUSH1 0x20 DUP4 ADD SWAP5 POP DUP1 SWAP4 POP POP POP POP SWAP3 POP SWAP3 POP SWAP3 JUMP JUMPDEST PUSH4 0x4E487B71 PUSH1 0xE0 SHL PUSH1 0x0 MSTORE PUSH1 0x21 PUSH1 0x4 MSTORE PUSH1 0x24 PUSH1 0x0 REVERT JUMPDEST PUSH1 0x4 DUP2 LT PUSH2 0xEB0 JUMPI PUSH4 0x4E487B71 PUSH1 0xE0 SHL PUSH1 0x0 MSTORE PUSH1 0x21 PUSH1 0x4 MSTORE PUSH1 0x24 PUSH1 0x0 REVERT JUMPDEST SWAP1 MSTORE JUMP JUMPDEST PUSH1 0x20 DUP2 ADD PUSH2 0x629 DUP3 DUP5 PUSH2 0xE92 JUMP JUMPDEST PUSH1 0x0 PUSH1 0x20 DUP3 DUP5 SUB SLT ISZERO PUSH2 0xED4 JUMPI PUSH1 0x0 DUP1 REVERT JUMPDEST DUP2 CALLDATALOAD PUSH8 0xFFFFFFFFFFFFFFFF DUP2 GT ISZERO PUSH2 0xEEB JUMPI PUSH1 0x0 DUP1 REVERT JUMPDEST DUP3 ADD PUSH2 0x100 DUP2 DUP6 SUB SLT ISZERO PUSH2 0xEFE JUMPI PUSH1 0x0 DUP1 REVERT JUMPDEST SWAP4 SWAP3 POP POP POP JUMP JUMPDEST PUSH1 0x20 DUP1 DUP3 MSTORE PUSH1 0xD SWAP1 DUP3 ADD MSTORE PUSH13 0x1C9BDB1957DC995C5D5A5C9959 PUSH1 0x9A SHL PUSH1 0x40 DUP3 ADD MSTORE PUSH1 0x60 ADD SWAP1 JUMP JUMPDEST PUSH1 0xA0 DUP2 ADD PUSH2 0xF3A DUP3 DUP9 PUSH2 0xE92 JUMP JUMPDEST PUSH2 0xF47 PUSH1 0x20 DUP4 ADD DUP8 PUSH2 0xE92 JUMP JUMPDEST PUSH1 0x1 PUSH1 0x1 PUSH1 0xA0 SHL SUB SWAP5 SWAP1 SWAP5 AND PUSH1 0x40 DUP3 ADD MSTORE SWAP2 ISZERO ISZERO PUSH1 0x60 DUP4 ADD MSTORE PUSH1 0x80 SWAP1 SWAP2 ADD MSTORE SWAP3 SWAP2 POP POP JUMP JUMPDEST DUP2 DUP4 MSTORE DUP2 DUP2 PUSH1 0x20 DUP6 ADD CALLDATACOPY POP PUSH1 0x0 DUP3 DUP3 ADD PUSH1 0x20 SWAP1 DUP2 ADD SWAP2 SWAP1 SWAP2 MSTORE PUSH1 0x1F SWAP1 SWAP2 ADD PUSH1 0x1F NOT AND SWAP1 SWAP2 ADD ADD SWAP1 JUMP JUMPDEST PUSH1 0x20 DUP2 MSTORE PUSH1 0x0 PUSH2 0xFA9 PUSH1 0x20 DUP4 ADD DUP5 DUP7 PUSH2 0xF6C JUMP JUMPDEST SWAP5 SWAP4 POP POP POP POP JUMP JUMPDEST PUSH1 0x0 PUSH1 0x20 DUP3 DUP5 SUB SLT ISZERO PUSH2 0xFC3 JUMPI PUSH1 0x0 DUP1 REVERT JUMPDEST DUP2 CALLDATALOAD PUSH2 0xEFE DUP2 PUSH2 0xDE6 JUMP JUMPDEST DUP1 DUP3 ADD DUP1 DUP3 GT ISZERO PUSH2 0x629 JUMPI PUSH4 0x4E487B71 PUSH1 0xE0 SHL PUSH1 0x0 MSTORE PUSH1 0x11 PUSH1 0x4 MSTORE PUSH1 0x24 PUSH1 0x0 REVERT JUMPDEST PUSH1 0x0 DUP1 DUP4 CALLDATALOAD PUSH1 0x1E NOT DUP5 CALLDATASIZE SUB ADD DUP2 SLT PUSH2 0x1006 JUMPI PUSH1 0x0 DUP1 REVERT JUMPDEST DUP4 ADD DUP1 CALLDATALOAD SWAP2 POP PUSH8 0xFFFFFFFFFFFFFFFF DUP3 GT ISZERO PUSH2 0x1021 JUMPI PUSH1 0x0 DUP1 REVERT JUMPDEST PUSH1 0x20 ADD SWAP2 POP CALLDATASIZE DUP2 SWAP1 SUB DUP3 SGT ISZERO PUSH2 0x1036 JUMPI PUSH1 0x0 DUP1 REVERT JUMPDEST SWAP3 POP SWAP3 SWAP1 POP JUMP JUMPDEST DUP2 DUP4 DUP3 CALLDATACOPY PUSH1 0x0 SWAP2 ADD SWAP1 DUP2 MSTORE SWAP2 SWAP1 POP JUMP JUMPDEST PUSH1 0x0 PUSH1 0x20 DUP3 DUP5 SUB SLT ISZERO PUSH2 0x105F JUMPI PUSH1 0x0 DUP1 REVERT JUMPDEST PUSH2 0xEFE DUP3 PUSH2 0xD7C JUMP JUMPDEST DUP6 DUP2 MSTORE PUSH1 0x1 PUSH1 0x1 PUSH1 0xA0 SHL SUB DUP6 DUP2 AND PUSH1 0x20 DUP4 ADD MSTORE DUP5 AND PUSH1 0x40 DUP3 ADD MSTORE PUSH1 0x80 PUSH1 0x60 DUP3 ADD DUP2 SWAP1 MSTORE PUSH1 0x0 SWAP1 PUSH2 0x109B SWAP1 DUP4 ADD DUP5 DUP7 PUSH2 0xF6C JUMP JUMPDEST SWAP8 SWAP7 POP POP POP POP POP POP POP JUMP JUMPDEST PUSH1 0x0 DUP1 PUSH1 0x40 DUP4 DUP6 SUB SLT ISZERO PUSH2 0x10B9 JUMPI PUSH1 0x0 DUP1 REVERT JUMPDEST DUP3 MLOAD PUSH2 0x10C4 DUP2 PUSH2 0xDE6 JUMP JUMPDEST PUSH1 0x20 SWAP4 SWAP1 SWAP4 ADD MLOAD SWAP3 SWAP5 SWAP3 SWAP4 POP POP POP JUMP INVALID SLOAD PUSH11 0x6914CABC6805440325FBBC DUP12 0x27 SWAP2 PREVRANDAO 0x2A BLOBBASEFEE 0x2D CREATE 0xC5 EXTCODECOPY GAS AND MUL 0x25 0xAB PUSH26 0xAB8F563C1B1854AB1360ABBB06C8D4C6B2672D4B8CEDC5EFF522 0xAB NOT 0xE5 SAR TLOAD 0xB8 REVERT 0xBD CHAINID LOG2 PUSH5 0x6970667358 0x22 SLT KECCAK256 GAS SUB MSTORE 0x4B PUSH8 0x8EE0F8D86E1818FE PUSH10 0xA2CA3A1B4B392B800B78 0xE4 PUSH12 0xFB9763E72CEE64736F6C6343 STOP ADDMOD XOR STOP CALLER 0x2F DUP8 DUP9 GT PUSH31 0x7EFF1D82E926EC794901D17C78024A50270940304540A733656F0D00000000 "},"methodIdentifiers":{"ADMIN_ROLE()":"75b238fc","EMERGENCY_ROLE()":"20df4359","activeCycleId()":"c7516609","asterDexRouter()":"3e9d7e0c","cooldownSeconds()":"b8221bc4","cycleState()":"8de21c7a","grantRole(bytes32,address)":"2f2ff15d","hasRole(bytes32,address)":"91d14854","lastExecutionAt()":"da3f1b44","lastTransitionNonce()":"6b76167d","maxAmountRaw()":"216e1f9a","paused()":"5c975abb","recoverFromHalt()":"4897e9d2","runDeterministicCycle((bytes32,uint256,uint256,address,address,bytes,bytes32,bool))":"bc27389d","setEmergencyPause(bool,string)":"5cc5046f","setRiskConfig(uint256,uint256)":"50810df5"}}}}}