{"contracts/MockAsterDexEarnRouter.sol":{"MockAsterDexEarnRouter":{"abi":[{"anonymous":false,"inputs":[{"indexed":false,"internalType":"uint256","name":"amountRaw","type":"uint256"},{"indexed":false,"internalType":"address","name":"tokenIn","type":"address"},{"indexed":false,"internalType":"address","name":"tokenOut","type":"address"},{"indexed":false,"internalType":"bytes","name":"routeData","type":"bytes"}],"name":"ExecuteEarnCalled","type":"event"},{"inputs":[{"internalType":"uint256","name":"amountRaw","type":"uint256"},{"internalType":"address","name":"tokenIn","type":"address"},{"internalType":"address","name":"tokenOut","type":"address"},{"internalType":"bytes","name":"routeData","type":"bytes"}],"name":"executeEarn","outputs":[{"internalType":"bool","name":"success","type":"bool"},{"internalType":"bytes32","name":"routeExecutionId","type":"bytes32"}],"stateMutability":"nonpayable","type":"function"},{"inputs":[],"name":"nextExecutionId","outputs":[{"internalType":"bytes32","name":"","type":"bytes32"}],"stateMutability":"view","type":"function"},{"inputs":[{"internalType":"bool","name":"ok","type":"bool"},{"internalType":"bytes32","name":"executionId","type":"bytes32"}],"name":"setResult","outputs":[],"stateMutability":"nonpayable","type":"function"},{"inputs":[],"name":"shouldSucceed","outputs":[{"internalType":"bool","name":"","type":"bool"}],"stateMutability":"view","type":"function"}],"evm":{"bytecode":{"linkReferences":{},"object":"60806040526000805460ff191660019081179091557f310e190100814c79839e7690d3534f04ba03ad878284bbf16855009f562cb17c905534801561004357600080fd5b506102a6806100536000396000f3fe608060405234801561001057600080fd5b506004361061004c5760003560e01c80631c51667e1461005157806377d1349a14610078578063b5fd234114610094578063e77deb2c146100be575b600080fd5b61007661005f366004610135565b6000805460ff191692151592909217909155600155565b005b61008160015481565b6040519081526020015b60405180910390f35b6100a76100a2366004610182565b6100db565b60408051921515835260208301919091520161008b565b6000546100cb9060ff1681565b604051901515815260200161008b565b6000807fa88a5258c32ca6f2be943e535e026a4cfa932f5963e78d712fc3143b74a91a90878787878760405161011595949392919061021d565b60405180910390a1505060005460015460ff909116909550959350505050565b6000806040838503121561014857600080fd5b8235801515811461015857600080fd5b946020939093013593505050565b80356001600160a01b038116811461017d57600080fd5b919050565b60008060008060006080868803121561019a57600080fd5b853594506101aa60208701610166565b93506101b860408701610166565b9250606086013567ffffffffffffffff808211156101d557600080fd5b818801915088601f8301126101e957600080fd5b8135818111156101f857600080fd5b89602082850101111561020a57600080fd5b9699959850939650602001949392505050565b8581526001600160a01b0385811660208301528416604082015260806060820181905281018290526000828460a0840137600060a0848401015260a0601f19601f8501168301019050969550505050505056fea264697066735822122007675428d54643e000b083357417eee994712f66f326b7fe1b5cab73811a31ea64736f6c63430008180033","opcodes":"PUSH1 0x80 PUSH1 0x40 MSTORE PUSH1 0x0 DUP1 SLOAD PUSH1 0xFF NOT AND PUSH1 0x1 SWAP1 DUP2 OR SWAP1 SWAP2 SSTORE PUSH32 0x310E190100814C79839E7690D3534F04BA03AD878284BBF16855009F562CB17C SWAP1 SSTORE CALLVALUE DUP1 ISZERO PUSH2 0x43 JUMPI PUSH1 0x0 DUP1 REVERT JUMPDEST POP PUSH2 0x2A6 DUP1 PUSH2 0x53 PUSH1 0x0 CODECOPY PUSH1 0x0 RETURN INVALID PUSH1 0x80 PUSH1 0x40 MSTORE CALLVALUE DUP1 ISZERO PUSH2 0x10 JUMPI PUSH1 0x0 DUP1 REVERT JUMPDEST POP PUSH1 0x4 CALLDATASIZE LT PUSH2 0x4C JUMPI PUSH1 0x0 CALLDATALOAD PUSH1 0xE0 SHR DUP1 PUSH4 0x1C51667E EQ PUSH2 0x51 JUMPI DUP1 PUSH4 0x77D1349A EQ PUSH2 0x78 JUMPI DUP1 PUSH4 0xB5FD2341 EQ PUSH2 0x94 JUMPI DUP1 PUSH4 0xE77DEB2C EQ PUSH2 0xBE JUMPI JUMPDEST PUSH1 0x0 DUP1 REVERT JUMPDEST PUSH2 0x76 PUSH2 0x5F CALLDATASIZE PUSH1 0x4 PUSH2 0x135 JUMP JUMPDEST PUSH1 0x0 DUP1 SLOAD PUSH1 0xFF NOT AND SWAP3 ISZERO ISZERO SWAP3 SWAP1 SWAP3 OR SWAP1 SWAP2 SSTORE PUSH1 0x1 SSTORE JUMP JUMPDEST STOP JUMPDEST PUSH2 0x81 PUSH1 0x1 SLOAD DUP2 JUMP JUMPDEST PUSH1 0x40 MLOAD SWAP1 DUP2 MSTORE PUSH1 0x20 ADD JUMPDEST PUSH1 0x40 MLOAD DUP1 SWAP2 SUB SWAP1 RETURN JUMPDEST PUSH2 0xA7 PUSH2 0xA2 CALLDATASIZE PUSH1 0x4 PUSH2 0x182 JUMP JUMPDEST PUSH2 0xDB JUMP JUMPDEST PUSH1 0x40 DUP1 MLOAD SWAP3 ISZERO ISZERO DUP4 MSTORE PUSH1 0x20 DUP4 ADD SWAP2 SWAP1 SWAP2 MSTORE ADD PUSH2 0x8B JUMP JUMPDEST PUSH1 0x0 SLOAD PUSH2 0xCB SWAP1 PUSH1 0xFF AND DUP2 JUMP JUMPDEST PUSH1 0x40 MLOAD SWAP1 ISZERO ISZERO DUP2 MSTORE PUSH1 0x20 ADD PUSH2 0x8B JUMP JUMPDEST PUSH1 0x0 DUP1 PUSH32 0xA88A5258C32CA6F2BE943E535E026A4CFA932F5963E78D712FC3143B74A91A90 DUP8 DUP8 DUP8 DUP8 DUP8 PUSH1 0x40 MLOAD PUSH2 0x115 SWAP6 SWAP5 SWAP4 SWAP3 SWAP2 SWAP1 PUSH2 0x21D JUMP JUMPDEST PUSH1 0x40 MLOAD DUP1 SWAP2 SUB SWAP1 LOG1 POP POP PUSH1 0x0 SLOAD PUSH1 0x1 SLOAD PUSH1 0xFF SWAP1 SWAP2 AND SWAP1 SWAP6 POP SWAP6 SWAP4 POP POP POP POP JUMP JUMPDEST PUSH1 0x0 DUP1 PUSH1 0x40 DUP4 DUP6 SUB SLT ISZERO PUSH2 0x148 JUMPI PUSH1 0x0 DUP1 REVERT JUMPDEST DUP3 CALLDATALOAD DUP1 ISZERO ISZERO DUP2 EQ PUSH2 0x158 JUMPI PUSH1 0x0 DUP1 REVERT JUMPDEST SWAP5 PUSH1 0x20 SWAP4 SWAP1 SWAP4 ADD CALLDATALOAD SWAP4 POP POP POP JUMP JUMPDEST DUP1 CALLDATALOAD PUSH1 0x1 PUSH1 0x1 PUSH1 0xA0 SHL SUB DUP2 AND DUP2 EQ PUSH2 0x17D JUMPI PUSH1 0x0 DUP1 REVERT JUMPDEST SWAP2 SWAP1 POP JUMP JUMPDEST PUSH1 0x0 DUP1 PUSH1 0x0 DUP1 PUSH1 0x0 PUSH1 0x80 DUP7 DUP9 SUB SLT ISZERO PUSH2 0x19A JUMPI PUSH1 0x0 DUP1 REVERT JUMPDEST DUP6 CALLDATALOAD SWAP5 POP PUSH2 0x1AA PUSH1 0x20 DUP8 ADD PUSH2 0x166 JUMP JUMPDEST SWAP4 POP PUSH2 0x1B8 PUSH1 0x40 DUP8 ADD PUSH2 0x166 JUMP JUMPDEST SWAP3 POP PUSH1 0x60 DUP7 ADD CALLDATALOAD PUSH8 0xFFFFFFFFFFFFFFFF DUP1 DUP3 GT ISZERO PUSH2 0x1D5 JUMPI PUSH1 0x0 DUP1 REVERT JUMPDEST DUP2 DUP9 ADD SWAP2 POP DUP9 PUSH1 0x1F DUP4 ADD SLT PUSH2 0x1E9 JUMPI PUSH1 0x0 DUP1 REVERT JUMPDEST DUP2 CALLDATALOAD DUP2 DUP2 GT ISZERO PUSH2 0x1F8 JUMPI PUSH1 0x0 DUP1 REVERT JUMPDEST DUP10 PUSH1 0x20 DUP3 DUP6 ADD ADD GT ISZERO PUSH2 0x20A JUMPI PUSH1 0x0 DUP1 REVERT JUMPDEST SWAP7 SWAP10 SWAP6 SWAP9 POP SWAP4 SWAP7 POP PUSH1 0x20 ADD SWAP5 SWAP4 SWAP3 POP POP POP JUMP JUMPDEST DUP6 DUP2 MSTORE PUSH1 0x1 PUSH1 0x1 PUSH1 0xA0 SHL SUB DUP6 DUP2 AND PUSH1 0x20 DUP4 ADD MSTORE DUP5 AND PUSH1 0x40 DUP3 ADD MSTORE PUSH1 0x80 PUSH1 0x60 DUP3 ADD DUP2 SWAP1 MSTORE DUP2 ADD DUP3 SWAP1 MSTORE PUSH1 0x0 DUP3 DUP5 PUSH1 0xA0 DUP5 ADD CALLDATACOPY PUSH1 0x0 PUSH1 0xA0 DUP5 DUP5 ADD ADD MSTORE PUSH1 0xA0 PUSH1 0x1F NOT PUSH1 0x1F DUP6 ADD AND DUP4 ADD ADD SWAP1 POP SWAP7 SWAP6 POP POP POP POP POP POP JUMP INVALID LOG2 PUSH5 0x6970667358 0x22 SLT KECCAK256 SMOD PUSH8 0x5428D54643E000B0 DUP4 CALLDATALOAD PUSH21 0x17EEE994712F66F326B7FE1B5CAB73811A31EA6473 PUSH16 0x6C634300081800330000000000000000 "},"methodIdentifiers":{"executeEarn(uint256,address,address,bytes)":"b5fd2341","nextExecutionId()":"77d1349a","setResult(bool,bytes32)":"1c51667e","shouldSucceed()":"e77deb2c"}}}}}