{"contracts/MockForwarder.sol":{"MockForwarder":{"abi":[{"inputs":[{"internalType":"address","name":"target","type":"address"},{"components":[{"internalType":"bytes32","name":"cycleId","type":"bytes32"},{"internalType":"uint256","name":"transitionNonce","type":"uint256"},{"internalType":"uint256","name":"amountRaw","type":"uint256"},{"internalType":"address","name":"tokenIn","type":"address"},{"internalType":"address","name":"tokenOut","type":"address"},{"internalType":"bytes","name":"routeData","type":"bytes"},{"internalType":"bytes32","name":"routeDataHash","type":"bytes32"},{"internalType":"bool","name":"emergencyOverride","type":"bool"}],"internalType":"struct IStrategyForward.CycleRequest","name":"req","type":"tuple"}],"name":"forward","outputs":[],"stateMutability":"nonpayable","type":"function"}],"evm":{"bytecode":{"linkReferences":{},"object":"608060405234801561001057600080fd5b506102a8806100206000396000f3fe608060405234801561001057600080fd5b506004361061002b5760003560e01c8063e1efdb7e14610030575b600080fd5b61004361003e3660046100d5565b610045565b005b60405163bc27389d60e01b81526001600160a01b0383169063bc27389d906100719084906004016101b1565b60408051808303816000875af115801561008f573d6000803e3d6000fd5b505050506040513d601f19601f820116820180604052508101906100b3919061024e565b50505050565b80356001600160a01b03811681146100d057600080fd5b919050565b600080604083850312156100e857600080fd5b6100f1836100b9565b9150602083013567ffffffffffffffff81111561010d57600080fd5b8301610100818603121561012057600080fd5b809150509250929050565b6000808335601e1984360301811261014257600080fd5b830160208101925035905067ffffffffffffffff81111561016257600080fd5b80360382131561017157600080fd5b9250929050565b81835281816020850137506000828201602090810191909152601f909101601f19169091010190565b803580151581146100d057600080fd5b6020815281356020820152602082013560408201526040820135606082015260006101de606084016100b9565b60018060a01b038082166080850152806101fa608087016100b9565b1660a0850152505061020f60a084018461012b565b6101008060c086015261022761012086018385610178565b925060c086013560e086015261023f60e087016101a1565b15159401939093529392505050565b6000806040838503121561026157600080fd5b50508051602090910151909290915056fea264697066735822122034853e52d1b87d38d5c6e7c1db0625036a97457ed60b0806cd555c4236b85ea664736f6c63430008180033","opcodes":"PUSH1 0x80 PUSH1 0x40 MSTORE CALLVALUE DUP1 ISZERO PUSH2 0x10 JUMPI PUSH1 0x0 DUP1 REVERT JUMPDEST POP PUSH2 0x2A8 DUP1 PUSH2 0x20 PUSH1 0x0 CODECOPY PUSH1 0x0 RETURN INVALID PUSH1 0x80 PUSH1 0x40 MSTORE CALLVALUE DUP1 ISZERO PUSH2 0x10 JUMPI PUSH1 0x0 DUP1 REVERT JUMPDEST POP PUSH1 0x4 CALLDATASIZE LT PUSH2 0x2B JUMPI PUSH1 0x0 CALLDATALOAD PUSH1 0xE0 SHR DUP1 PUSH4 0xE1EFDB7E EQ PUSH2 0x30 JUMPI JUMPDEST PUSH1 0x0 DUP1 REVERT JUMPDEST PUSH2 0x43 PUSH2 0x3E CALLDATASIZE PUSH1 0x4 PUSH2 0xD5 JUMP JUMPDEST PUSH2 0x45 JUMP JUMPDEST STOP JUMPDEST PUSH1 0x40 MLOAD PUSH4 0xBC27389D PUSH1 0xE0 SHL DUP2 MSTORE PUSH1 0x1 PUSH1 0x1 PUSH1 0xA0 SHL SUB DUP4 AND SWAP1 PUSH4 0xBC27389D SWAP1 PUSH2 0x71 SWAP1 DUP5 SWAP1 PUSH1 0x4 ADD PUSH2 0x1B1 JUMP JUMPDEST PUSH1 0x40 DUP1 MLOAD DUP1 DUP4 SUB DUP2 PUSH1 0x0 DUP8 GAS CALL ISZERO DUP1 ISZERO PUSH2 0x8F JUMPI RETURNDATASIZE PUSH1 0x0 DUP1 RETURNDATACOPY RETURNDATASIZE PUSH1 0x0 REVERT JUMPDEST POP POP POP POP PUSH1 0x40 MLOAD RETURNDATASIZE PUSH1 0x1F NOT PUSH1 0x1F DUP3 ADD AND DUP3 ADD DUP1 PUSH1 0x40 MSTORE POP DUP2 ADD SWAP1 PUSH2 0xB3 SWAP2 SWAP1 PUSH2 0x24E JUMP JUMPDEST POP POP POP POP JUMP JUMPDEST DUP1 CALLDATALOAD PUSH1 0x1 PUSH1 0x1 PUSH1 0xA0 SHL SUB DUP2 AND DUP2 EQ PUSH2 0xD0 JUMPI PUSH1 0x0 DUP1 REVERT JUMPDEST SWAP2 SWAP1 POP JUMP JUMPDEST PUSH1 0x0 DUP1 PUSH1 0x40 DUP4 DUP6 SUB SLT ISZERO PUSH2 0xE8 JUMPI PUSH1 0x0 DUP1 REVERT JUMPDEST PUSH2 0xF1 DUP4 PUSH2 0xB9 JUMP JUMPDEST SWAP2 POP PUSH1 0x20 DUP4 ADD CALLDATALOAD PUSH8 0xFFFFFFFFFFFFFFFF DUP2 GT ISZERO PUSH2 0x10D JUMPI PUSH1 0x0 DUP1 REVERT JUMPDEST DUP4 ADD PUSH2 0x100 DUP2 DUP7 SUB SLT ISZERO PUSH2 0x120 JUMPI PUSH1 0x0 DUP1 REVERT JUMPDEST DUP1 SWAP2 POP POP SWAP3 POP SWAP3 SWAP1 POP JUMP JUMPDEST PUSH1 0x0 DUP1 DUP4 CALLDATALOAD PUSH1 0x1E NOT DUP5 CALLDATASIZE SUB ADD DUP2 SLT PUSH2 0x142 JUMPI PUSH1 0x0 DUP1 REVERT JUMPDEST DUP4 ADD PUSH1 0x20 DUP2 ADD SWAP3 POP CALLDATALOAD SWAP1 POP PUSH8 0xFFFFFFFFFFFFFFFF DUP2 GT ISZERO PUSH2 0x162 JUMPI PUSH1 0x0 DUP1 REVERT JUMPDEST DUP1 CALLDATASIZE SUB DUP3 SGT ISZERO PUSH2 0x171 JUMPI PUSH1 0x0 DUP1 REVERT JUMPDEST SWAP3 POP SWAP3 SWAP1 POP JUMP JUMPDEST DUP2 DUP4 MSTORE DUP2 DUP2 PUSH1 0x20 DUP6 ADD CALLDATACOPY POP PUSH1 0x0 DUP3 DUP3 ADD PUSH1 0x20 SWAP1 DUP2 ADD SWAP2 SWAP1 SWAP2 MSTORE PUSH1 0x1F SWAP1 SWAP2 ADD PUSH1 0x1F NOT AND SWAP1 SWAP2 ADD ADD SWAP1 JUMP JUMPDEST DUP1 CALLDATALOAD DUP1 ISZERO ISZERO DUP2 EQ PUSH2 0xD0 JUMPI PUSH1 0x0 DUP1 REVERT JUMPDEST PUSH1 0x20 DUP2 MSTORE DUP2 CALLDATALOAD PUSH1 0x20 DUP3 ADD MSTORE PUSH1 0x20 DUP3 ADD CALLDATALOAD PUSH1 0x40 DUP3 ADD MSTORE PUSH1 0x40 DUP3 ADD CALLDATALOAD PUSH1 0x60 DUP3 ADD MSTORE PUSH1 0x0 PUSH2 0x1DE PUSH1 0x60 DUP5 ADD PUSH2 0xB9 JUMP JUMPDEST PUSH1 0x1 DUP1 PUSH1 0xA0 SHL SUB DUP1 DUP3 AND PUSH1 0x80 DUP6 ADD MSTORE DUP1 PUSH2 0x1FA PUSH1 0x80 DUP8 ADD PUSH2 0xB9 JUMP JUMPDEST AND PUSH1 0xA0 DUP6 ADD MSTORE POP POP PUSH2 0x20F PUSH1 0xA0 DUP5 ADD DUP5 PUSH2 0x12B JUMP JUMPDEST PUSH2 0x100 DUP1 PUSH1 0xC0 DUP7 ADD MSTORE PUSH2 0x227 PUSH2 0x120 DUP7 ADD DUP4 DUP6 PUSH2 0x178 JUMP JUMPDEST SWAP3 POP PUSH1 0xC0 DUP7 ADD CALLDATALOAD PUSH1 0xE0 DUP7 ADD MSTORE PUSH2 0x23F PUSH1 0xE0 DUP8 ADD PUSH2 0x1A1 JUMP JUMPDEST ISZERO ISZERO SWAP5 ADD SWAP4 SWAP1 SWAP4 MSTORE SWAP4 SWAP3 POP POP POP JUMP JUMPDEST PUSH1 0x0 DUP1 PUSH1 0x40 DUP4 DUP6 SUB SLT ISZERO PUSH2 0x261 JUMPI PUSH1 0x0 DUP1 REVERT JUMPDEST POP POP DUP1 MLOAD PUSH1 0x20 SWAP1 SWAP2 ADD MLOAD SWAP1 SWAP3 SWAP1 SWAP2 POP JUMP INVALID LOG2 PUSH5 0x6970667358 0x22 SLT KECCAK256 CALLVALUE DUP6 RETURNDATACOPY MSTORE 0xD1 0xB8 PUSH30 0x38D5C6E7C1DB0625036A97457ED60B0806CD555C4236B85EA664736F6C63 NUMBER STOP ADDMOD XOR STOP CALLER "},"methodIdentifiers":{"forward(address,(bytes32,uint256,uint256,address,address,bytes,bytes32,bool))":"e1efdb7e"}}}}}