{
  "_format": "hh-sol-artifact-1",
  "contractName": "BscAutonomousStrategy",
  "sourceName": "contracts/BscAutonomousStrategy.sol",
  "abi": [
    {
      "inputs": [
        {
          "internalType": "address",
          "name": "router",
          "type": "address"
        },
        {
          "internalType": "uint256",
          "name": "initialMaxAmountRaw",
          "type": "uint256"
        },
        {
          "internalType": "uint256",
          "name": "initialCooldownSeconds",
          "type": "uint256"
        },
        {
          "internalType": "address",
          "name": "admin",
          "type": "address"
        },
        {
          "internalType": "address",
          "name": "emergencyAdmin",
          "type": "address"
        }
      ],
      "stateMutability": "nonpayable",
      "type": "constructor"
    },
    {
      "anonymous": false,
      "inputs": [
        {
          "indexed": true,
          "internalType": "bytes32",
          "name": "cycleId",
          "type": "bytes32"
        },
        {
          "indexed": true,
          "internalType": "uint256",
          "name": "transitionNonce",
          "type": "uint256"
        },
        {
          "indexed": false,
          "internalType": "enum BscAutonomousStrategy.CycleState",
          "name": "previousState",
          "type": "uint8"
        },
        {
          "indexed": false,
          "internalType": "enum BscAutonomousStrategy.CycleState",
          "name": "nextState",
          "type": "uint8"
        },
        {
          "indexed": false,
          "internalType": "address",
          "name": "actor",
          "type": "address"
        },
        {
          "indexed": false,
          "internalType": "bool",
          "name": "emergencyOverride",
          "type": "bool"
        },
        {
          "indexed": false,
          "internalType": "bytes32",
          "name": "routeDataHash",
          "type": "bytes32"
        }
      ],
      "name": "CycleStateTransition",
      "type": "event"
    },
    {
      "anonymous": false,
      "inputs": [
        {
          "indexed": true,
          "internalType": "bool",
          "name": "paused",
          "type": "bool"
        },
        {
          "indexed": true,
          "internalType": "address",
          "name": "actor",
          "type": "address"
        },
        {
          "indexed": false,
          "internalType": "string",
          "name": "reason",
          "type": "string"
        }
      ],
      "name": "EmergencyPauseSet",
      "type": "event"
    },
    {
      "anonymous": false,
      "inputs": [
        {
          "indexed": true,
          "internalType": "bytes32",
          "name": "cycleId",
          "type": "bytes32"
        },
        {
          "indexed": true,
          "internalType": "uint256",
          "name": "transitionNonce",
          "type": "uint256"
        },
        {
          "indexed": false,
          "internalType": "bool",
          "name": "executed",
          "type": "bool"
        },
        {
          "indexed": false,
          "internalType": "bool",
          "name": "emergencyOverride",
          "type": "bool"
        },
        {
          "indexed": false,
          "internalType": "uint256",
          "name": "amountRaw",
          "type": "uint256"
        },
        {
          "indexed": false,
          "internalType": "bytes32",
          "name": "routeExecutionId",
          "type": "bytes32"
        },
        {
          "indexed": false,
          "internalType": "string",
          "name": "reason",
          "type": "string"
        }
      ],
      "name": "ExecutionDecision",
      "type": "event"
    },
    {
      "anonymous": false,
      "inputs": [
        {
          "indexed": false,
          "internalType": "uint256",
          "name": "maxAmountRaw",
          "type": "uint256"
        },
        {
          "indexed": false,
          "internalType": "uint256",
          "name": "cooldownSeconds",
          "type": "uint256"
        },
        {
          "indexed": true,
          "internalType": "address",
          "name": "actor",
          "type": "address"
        }
      ],
      "name": "RiskConfigUpdated",
      "type": "event"
    },
    {
      "anonymous": false,
      "inputs": [
        {
          "indexed": true,
          "internalType": "bytes32",
          "name": "role",
          "type": "bytes32"
        },
        {
          "indexed": true,
          "internalType": "address",
          "name": "account",
          "type": "address"
        },
        {
          "indexed": true,
          "internalType": "address",
          "name": "sender",
          "type": "address"
        }
      ],
      "name": "RoleGranted",
      "type": "event"
    },
    {
      "inputs": [],
      "name": "ADMIN_ROLE",
      "outputs": [
        {
          "internalType": "bytes32",
          "name": "",
          "type": "bytes32"
        }
      ],
      "stateMutability": "view",
      "type": "function"
    },
    {
      "inputs": [],
      "name": "EMERGENCY_ROLE",
      "outputs": [
        {
          "internalType": "bytes32",
          "name": "",
          "type": "bytes32"
        }
      ],
      "stateMutability": "view",
      "type": "function"
    },
    {
      "inputs": [],
      "name": "activeCycleId",
      "outputs": [
        {
          "internalType": "bytes32",
          "name": "",
          "type": "bytes32"
        }
      ],
      "stateMutability": "view",
      "type": "function"
    },
    {
      "inputs": [],
      "name": "cooldownSeconds",
      "outputs": [
        {
          "internalType": "uint256",
          "name": "",
          "type": "uint256"
        }
      ],
      "stateMutability": "view",
      "type": "function"
    },
    {
      "inputs": [],
      "name": "cycleState",
      "outputs": [
        {
          "internalType": "enum BscAutonomousStrategy.CycleState",
          "name": "",
          "type": "uint8"
        }
      ],
      "stateMutability": "view",
      "type": "function"
    },
    {
      "inputs": [
        {
          "internalType": "bytes32",
          "name": "role",
          "type": "bytes32"
        },
        {
          "internalType": "address",
          "name": "account",
          "type": "address"
        }
      ],
      "name": "grantRole",
      "outputs": [],
      "stateMutability": "nonpayable",
      "type": "function"
    },
    {
      "inputs": [
        {
          "internalType": "bytes32",
          "name": "role",
          "type": "bytes32"
        },
        {
          "internalType": "address",
          "name": "account",
          "type": "address"
        }
      ],
      "name": "hasRole",
      "outputs": [
        {
          "internalType": "bool",
          "name": "",
          "type": "bool"
        }
      ],
      "stateMutability": "view",
      "type": "function"
    },
    {
      "inputs": [],
      "name": "hyperliquidRouter",
      "outputs": [
        {
          "internalType": "contract IHyperliquidEarnRouter",
          "name": "",
          "type": "address"
        }
      ],
      "stateMutability": "view",
      "type": "function"
    },
    {
      "inputs": [],
      "name": "lastExecutionAt",
      "outputs": [
        {
          "internalType": "uint256",
          "name": "",
          "type": "uint256"
        }
      ],
      "stateMutability": "view",
      "type": "function"
    },
    {
      "inputs": [],
      "name": "lastTransitionNonce",
      "outputs": [
        {
          "internalType": "uint256",
          "name": "",
          "type": "uint256"
        }
      ],
      "stateMutability": "view",
      "type": "function"
    },
    {
      "inputs": [],
      "name": "maxAmountRaw",
      "outputs": [
        {
          "internalType": "uint256",
          "name": "",
          "type": "uint256"
        }
      ],
      "stateMutability": "view",
      "type": "function"
    },
    {
      "inputs": [],
      "name": "paused",
      "outputs": [
        {
          "internalType": "bool",
          "name": "",
          "type": "bool"
        }
      ],
      "stateMutability": "view",
      "type": "function"
    },
    {
      "inputs": [],
      "name": "recoverFromHalt",
      "outputs": [],
      "stateMutability": "nonpayable",
      "type": "function"
    },
    {
      "inputs": [
        {
          "components": [
            {
              "internalType": "bytes32",
              "name": "cycleId",
              "type": "bytes32"
            },
            {
              "internalType": "uint256",
              "name": "transitionNonce",
              "type": "uint256"
            },
            {
              "internalType": "uint256",
              "name": "amountRaw",
              "type": "uint256"
            },
            {
              "internalType": "address",
              "name": "tokenIn",
              "type": "address"
            },
            {
              "internalType": "address",
              "name": "tokenOut",
              "type": "address"
            },
            {
              "internalType": "bytes",
              "name": "routeData",
              "type": "bytes"
            },
            {
              "internalType": "bytes32",
              "name": "routeDataHash",
              "type": "bytes32"
            },
            {
              "internalType": "bool",
              "name": "emergencyOverride",
              "type": "bool"
            }
          ],
          "internalType": "struct BscAutonomousStrategy.CycleRequest",
          "name": "req",
          "type": "tuple"
        }
      ],
      "name": "runDeterministicCycle",
      "outputs": [
        {
          "internalType": "bytes32",
          "name": "transitionId",
          "type": "bytes32"
        },
        {
          "internalType": "bytes32",
          "name": "routeExecutionId",
          "type": "bytes32"
        }
      ],
      "stateMutability": "nonpayable",
      "type": "function"
    },
    {
      "inputs": [
        {
          "internalType": "bool",
          "name": "value",
          "type": "bool"
        },
        {
          "internalType": "string",
          "name": "reason",
          "type": "string"
        }
      ],
      "name": "setEmergencyPause",
      "outputs": [],
      "stateMutability": "nonpayable",
      "type": "function"
    },
    {
      "inputs": [
        {
          "internalType": "uint256",
          "name": "newMaxAmountRaw",
          "type": "uint256"
        },
        {
          "internalType": "uint256",
          "name": "newCooldownSeconds",
          "type": "uint256"
        }
      ],
      "name": "setRiskConfig",
      "outputs": [],
      "stateMutability": "nonpayable",
      "type": "function"
    }
  ],
  "bytecode": "0x60a06040523480156200001157600080fd5b506040516200145138038062001451833981016040819052620000349162000256565b6001600160a01b038516620000825760405162461bcd60e51b815260206004820152600f60248201526e1c9bdd5d195c97dc995c5d5a5c9959608a1b60448201526064015b60405180910390fd5b6001600160a01b038216620000cb5760405162461bcd60e51b815260206004820152600e60248201526d18591b5a5b97dc995c5d5a5c995960921b604482015260640162000079565b6001600160a01b038116620001185760405162461bcd60e51b8152602060048201526012602482015271195b595c99d95b98de57dc995c5d5a5c995960721b604482015260640162000079565b6001600160a01b03858116608052600585905560068490556001805460ff19908116825584831660008181527f7d7ffb7a348e1c6a02869081a26547b49160dd3df72d1d75a570eb9b698292ec60209081526040808320805486168717905595871682527f3c1b1854ab1360abbb06c8d4c6b2672d4b8cedc5eff522ab19e51d5cb8fdbd469052848120805490931690931790915591513392917fa49807205ce4d355092ef5a8a18f56e8913cf4a201fbe287825b095693c2177591600080516020620014318339815191529190a460405133906001600160a01b038316907fbf233dd2aafeb4d50879c4aa5c81e96d92f6e6945c906a58f9f2d1c1631b4b26906000805160206200143183398151915290600090a45050505050620002b4565b80516001600160a01b03811681146200025157600080fd5b919050565b600080600080600060a086880312156200026f57600080fd5b6200027a8662000239565b94506020860151935060408601519250620002986060870162000239565b9150620002a86080870162000239565b90509295509295909350565b60805161115a620002d7600039600081816101ad0152610a67015261115a6000f3fe608060405234801561001057600080fd5b50600436106101005760003560e01c80636b76167d11610097578063b8221bc411610066578063b8221bc414610244578063bc27389d1461024d578063c751660914610275578063da3f1b441461027e57600080fd5b80636b76167d146101e757806375b238fc146101f05780638de21c7a1461021757806391d148541461023157600080fd5b806350810df5116100d357806350810df5146101655780635c975abb146101785780635cc5046f146101955780636ab298a2146101a857600080fd5b806320df435914610105578063216e1f9a1461013f5780632f2ff15d146101485780634897e9d21461015d575b600080fd5b61012c7fbf233dd2aafeb4d50879c4aa5c81e96d92f6e6945c906a58f9f2d1c1631b4b2681565b6040519081526020015b60405180910390f35b61012c60055481565b61015b610156366004610da8565b610287565b005b61015b6103a3565b61015b610173366004610dd4565b610498565b6007546101859060ff1681565b6040519015158152602001610136565b61015b6101a3366004610e07565b610552565b6101cf7f000000000000000000000000000000000000000000000000000000000000000081565b6040516001600160a01b039091168152602001610136565b61012c60035481565b61012c7fa49807205ce4d355092ef5a8a18f56e8913cf4a201fbe287825b095693c2177581565b6001546102249060ff1681565b6040516101369190610ec4565b61018561023f366004610da8565b610604565b61012c60065481565b61026061025b366004610ed2565b61062f565b60408051928352602083019190915201610136565b61012c60025481565b61012c60045481565b3360009081527f7d7ffb7a348e1c6a02869081a26547b49160dd3df72d1d75a570eb9b698292ec60205260409020547fa49807205ce4d355092ef5a8a18f56e8913cf4a201fbe287825b095693c217759060ff166103005760405162461bcd60e51b81526004016102f790610f15565b60405180910390fd5b6001600160a01b0382166103495760405162461bcd60e51b815260206004820152601060248201526f1858d8dbdd5b9d17dc995c5d5a5c995960821b60448201526064016102f7565b6000838152602081815260408083206001600160a01b0386168085529252808320805460ff1916600117905551339286917f2f8788117e7eff1d82e926ec794901d17c78024a50270940304540a733656f0d9190a4505050565b33600090815260008051602061110583398151915260205260409020547fbf233dd2aafeb4d50879c4aa5c81e96d92f6e6945c906a58f9f2d1c1631b4b269060ff166104015760405162461bcd60e51b81526004016102f790610f15565b600360015460ff16600381111561041a5761041a610e8c565b146104545760405162461bcd60e51b815260206004820152600a6024820152691b9bdd17da185b1d195960b21b60448201526064016102f7565b6001805460ff1916815560038054600254604051919390926000805160206110e58339815191529261048d926000913391908390610f3c565b60405180910390a350565b3360009081527f7d7ffb7a348e1c6a02869081a26547b49160dd3df72d1d75a570eb9b698292ec60205260409020547fa49807205ce4d355092ef5a8a18f56e8913cf4a201fbe287825b095693c217759060ff166105085760405162461bcd60e51b81526004016102f790610f15565b60058390556006829055604080518481526020810184905233917f908c94d1fa702ad0cb87ce082312965a42f4735ff41faf5d8f19108b1e5051a9910160405180910390a2505050565b33600090815260008051602061110583398151915260205260409020547fbf233dd2aafeb4d50879c4aa5c81e96d92f6e6945c906a58f9f2d1c1631b4b269060ff166105b05760405162461bcd60e51b81526004016102f790610f15565b6007805460ff19168515159081179091556040513391907fb56db74ea3b2ab83578101dc76a27a1c1fb21f532c09705f231f54a9ede60b3a906105f69087908790610fa5565b60405180910390a350505050565b6000828152602081815260408083206001600160a01b038516845290915290205460ff165b92915050565b600080610643610100840160e08501610fc1565b60075460ff16156106ea57806106845760405162461bcd60e51b81526020600482015260066024820152651c185d5cd95960d21b60448201526064016102f7565b336000908152600080516020611105833981519152602052604090205460ff166106ea5760405162461bcd60e51b8152602060048201526017602482015276195b595c99d95b98de57dc9bdb1957dc995c5d5a5c9959604a1b60448201526064016102f7565b6106fb610100850160e08601610fc1565b1561076b57336000908152600080516020611105833981519152602052604090205460ff166107665760405162461bcd60e51b8152602060048201526017602482015276195b595c99d95b98de57dc9bdb1957dc995c5d5a5c9959604a1b60448201526064016102f7565b6107ba565b3332146107ba5760405162461bcd60e51b815260206004820152601d60248201527f6d616e75616c5f6f766572726964655f706174685f72656a656374656400000060448201526064016102f7565b60008460400135116108005760405162461bcd60e51b815260206004820152600f60248201526e185b5bdd5b9d17dc995c5d5a5c9959608a1b60448201526064016102f7565b6005548460400135111561084b5760405162461bcd60e51b8152602060048201526012602482015271185b5bdd5b9d17d8589bdd9957d9dd585c9960721b60448201526064016102f7565b600354610859906001610fde565b8460200135146108ab5760405162461bcd60e51b815260206004820152601860248201527f696e76616c69645f7472616e736974696f6e5f6e6f6e6365000000000000000060448201526064016102f7565b60c08401356108bd60a0860186610fff565b6040516108cb92919061104d565b6040518091039020146109165760405162461bcd60e51b81526020600482015260136024820152720e4deeae8cabed0c2e6d0bedad2e6dac2e8c6d606b1b60448201526064016102f7565b600060015460ff16600381111561092f5761092f610e8c565b1461096d5760405162461bcd60e51b815260206004820152600e60248201526d73746174655f6e6f745f69646c6560901b60448201526064016102f7565b60065460045461097d9190610fde565b4210156109be5760405162461bcd60e51b815260206004820152600f60248201526e636f6f6c646f776e5f61637469766560881b60448201526064016102f7565b83356002819055604080516020808201939093529186013582820152850135606082015260c08086013560808301524660a08301520160408051601f198184030181529190528051602091820120935084013584356000805160206110e58339815191526000600133610a386101008b0160e08c01610fc1565b8a60c00135604051610a4e959493929190610f3c565b60405180910390a36001805460ff1916811790556000807f00000000000000000000000000000000000000000000000000000000000000006001600160a01b031663b5fd23416040880135610aa960808a0160608b0161105d565b610ab960a08b0160808c0161105d565b610ac660a08c018c610fff565b6040518663ffffffff1660e01b8152600401610ae6959493929190611078565b60408051808303816000875af1158015610b04573d6000803e3d6000fd5b505050506040513d601f19601f82011682018060405250810190610b2891906110b6565b915091508093508115610c8a576001805460ff191660021781556020870135908735907f747a533fc41b64d66712fe893b473d61d808a2afbcc1bd632d79b0f17f5453cc90610b7e6101008b0160e08c01610fc1565b6040805192151583529015156020830152808b0135908201526060810185905260a0608082018190526019908201527f68797065726c69717569645f6561726e5f65786563757465640000000000000060c082015260e00160405180910390a3602086013586356000805160206110e58339815191526001600233610c0a6101008d0160e08e01610fc1565b8c60c00135604051610c20959493929190610f3c565b60405180910390a36001805460ff19169055426004556020860135600381905586356000805160206110e58339815191526002600033610c676101008d0160e08e01610fc1565b8c60c00135604051610c7d959493929190610f3c565b60405180910390a3610d84565b6001805460ff1916600390811790915560208701359081905586357f747a533fc41b64d66712fe893b473d61d808a2afbcc1bd632d79b0f17f5453cc6000610cd96101008b0160e08c01610fc1565b6040805192151583529015156020830152808b0135908201526060810185905260a0608082018190526017908201527f68797065726c69717569645f6561726e5f6661696c656400000000000000000060c082015260e00160405180910390a3602086013586356000805160206110e58339815191526001600333610d656101008d0160e08e01610fc1565b8c60c00135604051610d7b959493929190610f3c565b60405180910390a35b505050915091565b80356001600160a01b0381168114610da357600080fd5b919050565b60008060408385031215610dbb57600080fd5b82359150610dcb60208401610d8c565b90509250929050565b60008060408385031215610de757600080fd5b50508035926020909101359150565b8015158114610e0457600080fd5b50565b600080600060408486031215610e1c57600080fd5b8335610e2781610df6565b9250602084013567ffffffffffffffff80821115610e4457600080fd5b818601915086601f830112610e5857600080fd5b813581811115610e6757600080fd5b876020828501011115610e7957600080fd5b6020830194508093505050509250925092565b634e487b7160e01b600052602160045260246000fd5b60048110610ec057634e487b7160e01b600052602160045260246000fd5b9052565b602081016106298284610ea2565b600060208284031215610ee457600080fd5b813567ffffffffffffffff811115610efb57600080fd5b82016101008185031215610f0e57600080fd5b9392505050565b6020808252600d908201526c1c9bdb1957dc995c5d5a5c9959609a1b604082015260600190565b60a08101610f4a8288610ea2565b610f576020830187610ea2565b6001600160a01b03949094166040820152911515606083015260809091015292915050565b81835281816020850137506000828201602090810191909152601f909101601f19169091010190565b602081526000610fb9602083018486610f7c565b949350505050565b600060208284031215610fd357600080fd5b8135610f0e81610df6565b8082018082111561062957634e487b7160e01b600052601160045260246000fd5b6000808335601e1984360301811261101657600080fd5b83018035915067ffffffffffffffff82111561103157600080fd5b60200191503681900382131561104657600080fd5b9250929050565b8183823760009101908152919050565b60006020828403121561106f57600080fd5b610f0e82610d8c565b8581526001600160a01b038581166020830152841660408201526080606082018190526000906110ab9083018486610f7c565b979650505050505050565b600080604083850312156110c957600080fd5b82516110d481610df6565b602093909301519294929350505056fe546a6914cabc6805440325fbbc8b2791442a4a2df0c53c5a160225ab79ab8f563c1b1854ab1360abbb06c8d4c6b2672d4b8cedc5eff522ab19e51d5cb8fdbd46a2646970667358221220e86d17ce14f0fe2bd4cdceb9032d3d10a7b83875eccc10d3a5df797884723bf064736f6c634300081800332f8788117e7eff1d82e926ec794901d17c78024a50270940304540a733656f0d",
  "linkReferences": {},
  "deployedLinkReferences": {}
}