{
  "_format": "hh-sol-artifact-1",
  "contractName": "MockForwarder",
  "sourceName": "contracts/MockForwarder.sol",
  "abi": [
    {
      "inputs": [
        {
          "internalType": "address",
          "name": "target",
          "type": "address"
        },
        {
          "components": [
            {
              "internalType": "bytes32",
              "name": "cycleId",
              "type": "bytes32"
            },
            {
              "internalType": "uint256",
              "name": "transitionNonce",
              "type": "uint256"
            },
            {
              "internalType": "uint256",
              "name": "amountRaw",
              "type": "uint256"
            },
            {
              "internalType": "address",
              "name": "tokenIn",
              "type": "address"
            },
            {
              "internalType": "address",
              "name": "tokenOut",
              "type": "address"
            },
            {
              "internalType": "bytes",
              "name": "routeData",
              "type": "bytes"
            },
            {
              "internalType": "bytes32",
              "name": "routeDataHash",
              "type": "bytes32"
            },
            {
              "internalType": "bool",
              "name": "emergencyOverride",
              "type": "bool"
            }
          ],
          "internalType": "struct IStrategyForward.CycleRequest",
          "name": "req",
          "type": "tuple"
        }
      ],
      "name": "forward",
      "outputs": [],
      "stateMutability": "nonpayable",
      "type": "function"
    }
  ],
  "bytecode": "0x608060405234801561001057600080fd5b506102a8806100206000396000f3fe608060405234801561001057600080fd5b506004361061002b5760003560e01c8063e1efdb7e14610030575b600080fd5b61004361003e3660046100d5565b610045565b005b60405163bc27389d60e01b81526001600160a01b0383169063bc27389d906100719084906004016101b1565b60408051808303816000875af115801561008f573d6000803e3d6000fd5b505050506040513d601f19601f820116820180604052508101906100b3919061024e565b50505050565b80356001600160a01b03811681146100d057600080fd5b919050565b600080604083850312156100e857600080fd5b6100f1836100b9565b9150602083013567ffffffffffffffff81111561010d57600080fd5b8301610100818603121561012057600080fd5b809150509250929050565b6000808335601e1984360301811261014257600080fd5b830160208101925035905067ffffffffffffffff81111561016257600080fd5b80360382131561017157600080fd5b9250929050565b81835281816020850137506000828201602090810191909152601f909101601f19169091010190565b803580151581146100d057600080fd5b6020815281356020820152602082013560408201526040820135606082015260006101de606084016100b9565b60018060a01b038082166080850152806101fa608087016100b9565b1660a0850152505061020f60a084018461012b565b6101008060c086015261022761012086018385610178565b925060c086013560e086015261023f60e087016101a1565b15159401939093529392505050565b6000806040838503121561026157600080fd5b50508051602090910151909290915056fea264697066735822122034853e52d1b87d38d5c6e7c1db0625036a97457ed60b0806cd555c4236b85ea664736f6c63430008180033",
  "linkReferences": {},
  "deployedLinkReferences": {}
}